{
  "contractName": "Institution",
  "abi": [
    {
      "inputs": [
        {
          "internalType": "string",
          "name": "_name",
          "type": "string"
        },
        {
          "internalType": "string",
          "name": "_contactAddress",
          "type": "string"
        },
        {
          "internalType": "string",
          "name": "_additionalInformation",
          "type": "string"
        },
        {
          "internalType": "string",
          "name": "_phone",
          "type": "string"
        },
        {
          "internalType": "string",
          "name": "_email",
          "type": "string"
        },
        {
          "internalType": "uint256",
          "name": "_registrationNumber",
          "type": "uint256"
        }
      ],
      "stateMutability": "nonpayable",
      "type": "constructor"
    },
    {
      "anonymous": false,
      "inputs": [
        {
          "indexed": false,
          "internalType": "address",
          "name": "createdBy",
          "type": "address"
        },
        {
          "indexed": false,
          "internalType": "bytes",
          "name": "message",
          "type": "bytes"
        }
      ],
      "name": "InstitutionCreated",
      "type": "event"
    },
    {
      "anonymous": false,
      "inputs": [
        {
          "indexed": true,
          "internalType": "address",
          "name": "previousOwner",
          "type": "address"
        },
        {
          "indexed": true,
          "internalType": "address",
          "name": "newOwner",
          "type": "address"
        }
      ],
      "name": "OwnershipTransferred",
      "type": "event"
    },
    {
      "anonymous": false,
      "inputs": [
        {
          "indexed": false,
          "internalType": "address",
          "name": "sender",
          "type": "address"
        },
        {
          "indexed": false,
          "internalType": "uint256",
          "name": "amount",
          "type": "uint256"
        }
      ],
      "name": "WithdrawRequest",
      "type": "event"
    },
    {
      "inputs": [],
      "name": "availableBalance",
      "outputs": [
        {
          "internalType": "uint256",
          "name": "",
          "type": "uint256"
        }
      ],
      "stateMutability": "view",
      "type": "function"
    },
    {
      "inputs": [
        {
          "internalType": "address",
          "name": "",
          "type": "address"
        }
      ],
      "name": "otherOwners",
      "outputs": [
        {
          "internalType": "bool",
          "name": "",
          "type": "bool"
        }
      ],
      "stateMutability": "view",
      "type": "function"
    },
    {
      "inputs": [],
      "name": "owner",
      "outputs": [
        {
          "internalType": "address",
          "name": "",
          "type": "address"
        }
      ],
      "stateMutability": "view",
      "type": "function"
    },
    {
      "inputs": [],
      "name": "renounceOwnership",
      "outputs": [],
      "stateMutability": "nonpayable",
      "type": "function"
    },
    {
      "inputs": [
        {
          "internalType": "address",
          "name": "newOwner",
          "type": "address"
        }
      ],
      "name": "transferOwnership",
      "outputs": [],
      "stateMutability": "nonpayable",
      "type": "function"
    },
    {
      "stateMutability": "payable",
      "type": "receive"
    },
    {
      "inputs": [],
      "name": "getInstitutionDetails",
      "outputs": [
        {
          "internalType": "string",
          "name": "",
          "type": "string"
        },
        {
          "internalType": "string",
          "name": "",
          "type": "string"
        },
        {
          "internalType": "string",
          "name": "",
          "type": "string"
        },
        {
          "internalType": "string",
          "name": "",
          "type": "string"
        },
        {
          "internalType": "string",
          "name": "",
          "type": "string"
        },
        {
          "internalType": "uint256",
          "name": "",
          "type": "uint256"
        }
      ],
      "stateMutability": "view",
      "type": "function"
    },
    {
      "inputs": [
        {
          "internalType": "address",
          "name": "owner",
          "type": "address"
        }
      ],
      "name": "addOwners",
      "outputs": [],
      "stateMutability": "nonpayable",
      "type": "function"
    },
    {
      "inputs": [
        {
          "internalType": "uint256",
          "name": "amount",
          "type": "uint256"
        },
        {
          "internalType": "address",
          "name": "fakeAddress",
          "type": "address"
        }
      ],
      "name": "withdraw",
      "outputs": [
        {
          "internalType": "bool",
          "name": "",
          "type": "bool"
        }
      ],
      "stateMutability": "nonpayable",
      "type": "function"
    },
    {
      "inputs": [],
      "name": "deposit",
      "outputs": [],
      "stateMutability": "payable",
      "type": "function"
    }
  ],
  "bytecode": "0x60806040523480156200001157600080fd5b506040516200160338038062001603833981810160405281019062000037919062000493565b620000576200004b6200013f60201b60201c565b6200014760201b60201c565b85600190805190602001906200006f9291906200020b565b508460029080519060200190620000889291906200020b565b508360039080519060200190620000a19291906200020b565b508260049080519060200190620000ba9291906200020b565b508160059080519060200190620000d39291906200020b565b50806006819055506001600860003373ffffffffffffffffffffffffffffffffffffffff1673ffffffffffffffffffffffffffffffffffffffff16815260200190815260200160002060006101000a81548160ff0219169083151502179055505050505050506200062f565b600033905090565b60008060009054906101000a900473ffffffffffffffffffffffffffffffffffffffff169050816000806101000a81548173ffffffffffffffffffffffffffffffffffffffff021916908373ffffffffffffffffffffffffffffffffffffffff1602179055508173ffffffffffffffffffffffffffffffffffffffff168173ffffffffffffffffffffffffffffffffffffffff167f8be0079c531659141344cd1fd0a4f28419497f9722a3daafe3b4186f6b6457e060405160405180910390a35050565b8280546200021990620005f9565b90600052602060002090601f0160209004810192826200023d576000855562000289565b82601f106200025857805160ff191683800117855562000289565b8280016001018555821562000289579182015b82811115620002885782518255916020019190600101906200026b565b5b5090506200029891906200029c565b5090565b5b80821115620002b75760008160009055506001016200029d565b5090565b6000604051905090565b600080fd5b600080fd5b600080fd5b600080fd5b6000601f19601f8301169050919050565b7f4e487b7100000000000000000000000000000000000000000000000000000000600052604160045260246000fd5b6200032482620002d9565b810181811067ffffffffffffffff82111715620003465762000345620002ea565b5b80604052505050565b60006200035b620002bb565b905062000369828262000319565b919050565b600067ffffffffffffffff8211156200038c576200038b620002ea565b5b6200039782620002d9565b9050602081019050919050565b60005b83811015620003c4578082015181840152602081019050620003a7565b83811115620003d4576000848401525b50505050565b6000620003f1620003eb846200036e565b6200034f565b90508281526020810184848401111562000410576200040f620002d4565b5b6200041d848285620003a4565b509392505050565b600082601f8301126200043d576200043c620002cf565b5b81516200044f848260208601620003da565b91505092915050565b6000819050919050565b6200046d8162000458565b81146200047957600080fd5b50565b6000815190506200048d8162000462565b92915050565b60008060008060008060c08789031215620004b357620004b2620002c5565b5b600087015167ffffffffffffffff811115620004d457620004d3620002ca565b5b620004e289828a0162000425565b965050602087015167ffffffffffffffff811115620005065762000505620002ca565b5b6200051489828a0162000425565b955050604087015167ffffffffffffffff811115620005385762000537620002ca565b5b6200054689828a0162000425565b945050606087015167ffffffffffffffff8111156200056a5762000569620002ca565b5b6200057889828a0162000425565b935050608087015167ffffffffffffffff8111156200059c576200059b620002ca565b5b620005aa89828a0162000425565b92505060a0620005bd89828a016200047c565b9150509295509295509295565b7f4e487b7100000000000000000000000000000000000000000000000000000000600052602260045260246000fd5b600060028204905060018216806200061257607f821691505b60208210811415620006295762000628620005ca565b5b50919050565b610fc4806200063f6000396000f3fe6080604052600436106100895760003560e01c80638be1789a116100595780638be1789a1461015b5780638da5cb5b14610198578063ab2f0e51146101c3578063d0e30db0146101ee578063f2fde38b146101f8576100a9565b8062f714ce146100ae5780635f3b1f3b146100eb57806370cd325114610114578063715018a614610144576100a9565b366100a95734600760008282546100a091906109e4565b92505081905550005b600080fd5b3480156100ba57600080fd5b506100d560048036038101906100d09190610ac9565b610221565b6040516100e29190610b24565b60405180910390f35b3480156100f757600080fd5b50610112600480360381019061010d9190610b3f565b610337565b005b34801561012057600080fd5b5061012961040e565b60405161013b96959493929190610c14565b60405180910390f35b34801561015057600080fd5b506101596106f5565b005b34801561016757600080fd5b50610182600480360381019061017d9190610b3f565b61077d565b60405161018f9190610b24565b60405180910390f35b3480156101a457600080fd5b506101ad61079d565b6040516101ba9190610ca7565b60405180910390f35b3480156101cf57600080fd5b506101d86107c6565b6040516101e59190610cc2565b60405180910390f35b6101f66107cc565b005b34801561020457600080fd5b5061021f600480360381019061021a9190610b3f565b6107e7565b005b6000826007541015610268576040517f08c379a000000000000000000000000000000000000000000000000000000000815260040161025f90610d29565b60405180910390fd5b826007600082825461027a9190610d49565b9250508190555060008273ffffffffffffffffffffffffffffffffffffffff16846040516102a790610dae565b60006040518083038185875af1925050503d80600081146102e4576040519150601f19603f3d011682016040523d82523d6000602084013e6102e9565b606091505b505090508061032d576040517f08c379a000000000000000000000000000000000000000000000000000000000815260040161032490610e0f565b60405180910390fd5b8091505092915050565b61033f6108df565b73ffffffffffffffffffffffffffffffffffffffff1661035d61079d565b73ffffffffffffffffffffffffffffffffffffffff16146103b3576040517f08c379a00000000000000000000000000000000000000000000000000000000081526004016103aa90610e7b565b60405180910390fd5b6001600860008373ffffffffffffffffffffffffffffffffffffffff1673ffffffffffffffffffffffffffffffffffffffff16815260200190815260200160002060006101000a81548160ff02191690831515021790555050565b606080606080606060006001600260036004600560065485805461043190610eca565b80601f016020809104026020016040519081016040528092919081815260200182805461045d90610eca565b80156104aa5780601f1061047f576101008083540402835291602001916104aa565b820191906000526020600020905b81548152906001019060200180831161048d57829003601f168201915b505050505095508480546104bd90610eca565b80601f01602080910402602001604051908101604052809291908181526020018280546104e990610eca565b80156105365780601f1061050b57610100808354040283529160200191610536565b820191906000526020600020905b81548152906001019060200180831161051957829003601f168201915b5050505050945083805461054990610eca565b80601f016020809104026020016040519081016040528092919081815260200182805461057590610eca565b80156105c25780601f10610597576101008083540402835291602001916105c2565b820191906000526020600020905b8154815290600101906020018083116105a557829003601f168201915b505050505093508280546105d590610eca565b80601f016020809104026020016040519081016040528092919081815260200182805461060190610eca565b801561064e5780601f106106235761010080835404028352916020019161064e565b820191906000526020600020905b81548152906001019060200180831161063157829003601f168201915b5050505050925081805461066190610eca565b80601f016020809104026020016040519081016040528092919081815260200182805461068d90610eca565b80156106da5780601f106106af576101008083540402835291602001916106da565b820191906000526020600020905b8154815290600101906020018083116106bd57829003601f168201915b50505050509150955095509550955095509550909192939495565b6106fd6108df565b73ffffffffffffffffffffffffffffffffffffffff1661071b61079d565b73ffffffffffffffffffffffffffffffffffffffff1614610771576040517f08c379a000000000000000000000000000000000000000000000000000000000815260040161076890610e7b565b60405180910390fd5b61077b60006108e7565b565b60086020528060005260406000206000915054906101000a900460ff1681565b60008060009054906101000a900473ffffffffffffffffffffffffffffffffffffffff16905090565b60075481565b34600760008282546107de91906109e4565b92505081905550565b6107ef6108df565b73ffffffffffffffffffffffffffffffffffffffff1661080d61079d565b73ffffffffffffffffffffffffffffffffffffffff1614610863576040517f08c379a000000000000000000000000000000000000000000000000000000000815260040161085a90610e7b565b60405180910390fd5b600073ffffffffffffffffffffffffffffffffffffffff168173ffffffffffffffffffffffffffffffffffffffff1614156108d3576040517f08c379a00000000000000000000000000000000000000000000000000000000081526004016108ca90610f6e565b60405180910390fd5b6108dc816108e7565b50565b600033905090565b60008060009054906101000a900473ffffffffffffffffffffffffffffffffffffffff169050816000806101000a81548173ffffffffffffffffffffffffffffffffffffffff021916908373ffffffffffffffffffffffffffffffffffffffff1602179055508173ffffffffffffffffffffffffffffffffffffffff168173ffffffffffffffffffffffffffffffffffffffff167f8be0079c531659141344cd1fd0a4f28419497f9722a3daafe3b4186f6b6457e060405160405180910390a35050565b6000819050919050565b7f4e487b7100000000000000000000000000000000000000000000000000000000600052601160045260246000fd5b60006109ef826109ab565b91506109fa836109ab565b9250827fffffffffffffffffffffffffffffffffffffffffffffffffffffffffffffffff03821115610a2f57610a2e6109b5565b5b828201905092915050565b600080fd5b610a48816109ab565b8114610a5357600080fd5b50565b600081359050610a6581610a3f565b92915050565b600073ffffffffffffffffffffffffffffffffffffffff82169050919050565b6000610a9682610a6b565b9050919050565b610aa681610a8b565b8114610ab157600080fd5b50565b600081359050610ac381610a9d565b92915050565b60008060408385031215610ae057610adf610a3a565b5b6000610aee85828601610a56565b9250506020610aff85828601610ab4565b9150509250929050565b60008115159050919050565b610b1e81610b09565b82525050565b6000602082019050610b396000830184610b15565b92915050565b600060208284031215610b5557610b54610a3a565b5b6000610b6384828501610ab4565b91505092915050565b600081519050919050565b600082825260208201905092915050565b60005b83811015610ba6578082015181840152602081019050610b8b565b83811115610bb5576000848401525b50505050565b6000601f19601f8301169050919050565b6000610bd782610b6c565b610be18185610b77565b9350610bf1818560208601610b88565b610bfa81610bbb565b840191505092915050565b610c0e816109ab565b82525050565b600060c0820190508181036000830152610c2e8189610bcc565b90508181036020830152610c428188610bcc565b90508181036040830152610c568187610bcc565b90508181036060830152610c6a8186610bcc565b90508181036080830152610c7e8185610bcc565b9050610c8d60a0830184610c05565b979650505050505050565b610ca181610a8b565b82525050565b6000602082019050610cbc6000830184610c98565b92915050565b6000602082019050610cd76000830184610c05565b92915050565b7f496e73756666696369656e742062616c616e63652e0000000000000000000000600082015250565b6000610d13601583610b77565b9150610d1e82610cdd565b602082019050919050565b60006020820190508181036000830152610d4281610d06565b9050919050565b6000610d54826109ab565b9150610d5f836109ab565b925082821015610d7257610d716109b5565b5b828203905092915050565b600081905092915050565b50565b6000610d98600083610d7d565b9150610da382610d88565b600082019050919050565b6000610db982610d8b565b9150819050919050565b7f5769746864726177616c206661696c6564000000000000000000000000000000600082015250565b6000610df9601183610b77565b9150610e0482610dc3565b602082019050919050565b60006020820190508181036000830152610e2881610dec565b9050919050565b7f4f776e61626c653a2063616c6c6572206973206e6f7420746865206f776e6572600082015250565b6000610e65602083610b77565b9150610e7082610e2f565b602082019050919050565b60006020820190508181036000830152610e9481610e58565b9050919050565b7f4e487b7100000000000000000000000000000000000000000000000000000000600052602260045260246000fd5b60006002820490506001821680610ee257607f821691505b60208210811415610ef657610ef5610e9b565b5b50919050565b7f4f776e61626c653a206e6577206f776e657220697320746865207a65726f206160008201527f6464726573730000000000000000000000000000000000000000000000000000602082015250565b6000610f58602683610b77565b9150610f6382610efc565b604082019050919050565b60006020820190508181036000830152610f8781610f4b565b905091905056fea26469706673582212202efe8da3745bf8da154220bc027f040d428ac57a17ada57942888a23bd9329b364736f6c634300080a0033",
  "immutableReferences": {},
  "source": "// SPDX-License-Identifier: MIT\npragma solidity >=0.8.0;\n\nimport \"@openzeppelin/contracts/access/Ownable.sol\";\n\ncontract Institution is Ownable {\n    string name;\n    string contactAddress;\n    string additionalInformation;\n    string phone;\n    string email;\n    uint256 registrationNumber;\n    uint public availableBalance;\n\n    mapping(address=>bool) public otherOwners;\n\n    //Events\n    event InstitutionCreated(address createdBy, bytes message);\n    event WithdrawRequest(address sender, uint amount);\n\n    constructor(\n        string memory _name,\n        string memory _contactAddress,\n        string memory _additionalInformation,\n        string memory _phone,\n        string memory _email,\n        uint256 _registrationNumber\n    ) public {\n        // create institution\n        name = _name;\n        contactAddress = _contactAddress;\n        additionalInformation = _additionalInformation;\n        phone = _phone;\n        email = _email;\n        registrationNumber = _registrationNumber;\n        otherOwners[msg.sender]= true;\n    }\n\n    function getInstitutionDetails()\n        public\n        view\n        returns (\n            string memory,\n            string memory,\n            string memory,\n            string memory,\n            string memory,\n            uint256\n        )\n    {\n        return (\n            name,\n            contactAddress,\n            additionalInformation,\n            phone,\n            email,\n            registrationNumber\n        );\n    }\n\n    //collect tax function\n    // validate sender\n    // validate user input\n    // validate user balance\n    // send call to withdraw funds\n    receive() external payable{\n      availableBalance +=msg.value;\n    }\n\n    modifier isOwner(){\n        require(otherOwners[msg.sender], \"Not permitted to proceed\");\n        _;\n    }\n    \n    function addOwners(address owner) public onlyOwner{\n        otherOwners[owner]= true;\n    }\n\n    //Method to handle withdrawals of fund to a central remittance account\n    function withdraw(uint amount, address fakeAddress) public returns(bool){\n        require(availableBalance>= amount, \"Insufficient balance.\");\n        availableBalance-=amount;\n        (bool success, ) = payable(fakeAddress).call{value:amount}(\"\");\n        require(success, \"Withdrawal failed\");\n        return success;\n    }\n\n    \n    function deposit() external payable{availableBalance +=msg.value;}\n}\n",
  "sourcePath": "/Users/adewaleadeleye/projects/solidity/final-project/contracts/Institution.sol",
  "compiler": {
    "name": "solc",
    "version": "0.8.10+commit.fc410830.Emscripten.clang"
  },
  "schemaVersion": "3.4.3",
  "updatedAt": "2021-12-16T23:05:03.713Z",
  "devdoc": {
    "kind": "dev",
    "methods": {
      "owner()": {
        "details": "Returns the address of the current owner."
      },
      "renounceOwnership()": {
        "details": "Leaves the contract without owner. It will not be possible to call `onlyOwner` functions anymore. Can only be called by the current owner. NOTE: Renouncing ownership will leave the contract without an owner, thereby removing any functionality that is only available to the owner."
      },
      "transferOwnership(address)": {
        "details": "Transfers ownership of the contract to a new account (`newOwner`). Can only be called by the current owner."
      }
    },
    "version": 1
  },
  "userdoc": {
    "kind": "user",
    "methods": {},
    "version": 1
  }
}