{
  "contractName": "InstitutionManager",
  "abi": [
    {
      "anonymous": false,
      "inputs": [
        {
          "indexed": false,
          "internalType": "string",
          "name": "name",
          "type": "string"
        },
        {
          "indexed": false,
          "internalType": "string",
          "name": "contactAddress",
          "type": "string"
        },
        {
          "indexed": false,
          "internalType": "string",
          "name": "phone",
          "type": "string"
        },
        {
          "indexed": false,
          "internalType": "string",
          "name": "email",
          "type": "string"
        },
        {
          "indexed": false,
          "internalType": "uint256",
          "name": "registrationNumber",
          "type": "uint256"
        }
      ],
      "name": "GetInstitution",
      "type": "event"
    },
    {
      "anonymous": false,
      "inputs": [
        {
          "indexed": true,
          "internalType": "address",
          "name": "createdBy",
          "type": "address"
        },
        {
          "indexed": true,
          "internalType": "address",
          "name": "institutionAddress",
          "type": "address"
        },
        {
          "indexed": false,
          "internalType": "string",
          "name": "message",
          "type": "string"
        }
      ],
      "name": "InsitutionRecordCreated",
      "type": "event"
    },
    {
      "anonymous": false,
      "inputs": [
        {
          "indexed": true,
          "internalType": "address",
          "name": "previousOwner",
          "type": "address"
        },
        {
          "indexed": true,
          "internalType": "address",
          "name": "newOwner",
          "type": "address"
        }
      ],
      "name": "OwnershipTransferred",
      "type": "event"
    },
    {
      "anonymous": false,
      "inputs": [
        {
          "indexed": false,
          "internalType": "address",
          "name": "sender",
          "type": "address"
        },
        {
          "indexed": false,
          "internalType": "uint256",
          "name": "amount",
          "type": "uint256"
        }
      ],
      "name": "WithdrawRequest",
      "type": "event"
    },
    {
      "inputs": [
        {
          "internalType": "uint256",
          "name": "",
          "type": "uint256"
        }
      ],
      "name": "centralAccounts",
      "outputs": [
        {
          "internalType": "address",
          "name": "",
          "type": "address"
        }
      ],
      "stateMutability": "view",
      "type": "function",
      "constant": true
    },
    {
      "inputs": [],
      "name": "institutionIndex",
      "outputs": [
        {
          "internalType": "uint256",
          "name": "",
          "type": "uint256"
        }
      ],
      "stateMutability": "view",
      "type": "function",
      "constant": true
    },
    {
      "inputs": [
        {
          "internalType": "uint256",
          "name": "",
          "type": "uint256"
        }
      ],
      "name": "institutions",
      "outputs": [
        {
          "internalType": "address payable",
          "name": "",
          "type": "address"
        }
      ],
      "stateMutability": "view",
      "type": "function",
      "constant": true
    },
    {
      "inputs": [],
      "name": "owner",
      "outputs": [
        {
          "internalType": "address",
          "name": "",
          "type": "address"
        }
      ],
      "stateMutability": "view",
      "type": "function",
      "constant": true
    },
    {
      "inputs": [],
      "name": "recordManager",
      "outputs": [
        {
          "internalType": "address",
          "name": "",
          "type": "address"
        }
      ],
      "stateMutability": "view",
      "type": "function",
      "constant": true
    },
    {
      "inputs": [],
      "name": "remitanceAddressIndex",
      "outputs": [
        {
          "internalType": "uint256",
          "name": "",
          "type": "uint256"
        }
      ],
      "stateMutability": "view",
      "type": "function",
      "constant": true
    },
    {
      "inputs": [
        {
          "internalType": "address",
          "name": "",
          "type": "address"
        }
      ],
      "name": "remittanceAddresses",
      "outputs": [
        {
          "internalType": "bool",
          "name": "",
          "type": "bool"
        }
      ],
      "stateMutability": "view",
      "type": "function",
      "constant": true
    },
    {
      "inputs": [],
      "name": "renounceOwnership",
      "outputs": [],
      "stateMutability": "nonpayable",
      "type": "function"
    },
    {
      "inputs": [],
      "name": "totalRevenue",
      "outputs": [
        {
          "internalType": "uint256",
          "name": "",
          "type": "uint256"
        }
      ],
      "stateMutability": "view",
      "type": "function",
      "constant": true
    },
    {
      "inputs": [
        {
          "internalType": "address",
          "name": "newOwner",
          "type": "address"
        }
      ],
      "name": "transferOwnership",
      "outputs": [],
      "stateMutability": "nonpayable",
      "type": "function"
    },
    {
      "inputs": [],
      "name": "treasuryUserIndex",
      "outputs": [
        {
          "internalType": "uint256",
          "name": "",
          "type": "uint256"
        }
      ],
      "stateMutability": "view",
      "type": "function",
      "constant": true
    },
    {
      "inputs": [
        {
          "internalType": "address",
          "name": "",
          "type": "address"
        },
        {
          "internalType": "uint256",
          "name": "",
          "type": "uint256"
        }
      ],
      "name": "treasuryUsers",
      "outputs": [
        {
          "internalType": "bool",
          "name": "",
          "type": "bool"
        }
      ],
      "stateMutability": "view",
      "type": "function",
      "constant": true
    },
    {
      "stateMutability": "payable",
      "type": "receive",
      "payable": true
    },
    {
      "inputs": [
        {
          "internalType": "address",
          "name": "_recordManager",
          "type": "address"
        }
      ],
      "name": "setInstitutionRecordManager",
      "outputs": [],
      "stateMutability": "nonpayable",
      "type": "function"
    },
    {
      "inputs": [
        {
          "internalType": "string",
          "name": "_name",
          "type": "string"
        },
        {
          "internalType": "string",
          "name": "_contactAddress",
          "type": "string"
        },
        {
          "internalType": "string",
          "name": "_additionalInformation",
          "type": "string"
        },
        {
          "internalType": "string",
          "name": "_phone",
          "type": "string"
        },
        {
          "internalType": "string",
          "name": "_email",
          "type": "string"
        }
      ],
      "name": "createInstitution",
      "outputs": [
        {
          "internalType": "address",
          "name": "",
          "type": "address"
        }
      ],
      "stateMutability": "nonpayable",
      "type": "function"
    },
    {
      "inputs": [
        {
          "internalType": "uint256",
          "name": "registrationNumber",
          "type": "uint256"
        }
      ],
      "name": "getInstitution",
      "outputs": [
        {
          "internalType": "string",
          "name": "",
          "type": "string"
        },
        {
          "internalType": "string",
          "name": "",
          "type": "string"
        },
        {
          "internalType": "string",
          "name": "",
          "type": "string"
        },
        {
          "internalType": "string",
          "name": "",
          "type": "string"
        },
        {
          "internalType": "string",
          "name": "",
          "type": "string"
        },
        {
          "internalType": "uint256",
          "name": "",
          "type": "uint256"
        }
      ],
      "stateMutability": "view",
      "type": "function",
      "constant": true
    },
    {
      "inputs": [
        {
          "internalType": "uint256",
          "name": "registrationNumber",
          "type": "uint256"
        }
      ],
      "name": "getInstitutionById",
      "outputs": [
        {
          "internalType": "address",
          "name": "",
          "type": "address"
        }
      ],
      "stateMutability": "view",
      "type": "function",
      "constant": true
    },
    {
      "inputs": [
        {
          "internalType": "address payable",
          "name": "_remitanceAddress",
          "type": "address"
        }
      ],
      "name": "addRemittanceAddresses",
      "outputs": [],
      "stateMutability": "nonpayable",
      "type": "function"
    },
    {
      "inputs": [
        {
          "internalType": "address payable",
          "name": "_remitanceAddress",
          "type": "address"
        }
      ],
      "name": "disbaleRemittanceAddresses",
      "outputs": [],
      "stateMutability": "nonpayable",
      "type": "function"
    },
    {
      "inputs": [
        {
          "internalType": "uint256",
          "name": "_institutionId",
          "type": "uint256"
        },
        {
          "internalType": "address",
          "name": "_treasurerAddress",
          "type": "address"
        }
      ],
      "name": "addTreasuryUsers",
      "outputs": [],
      "stateMutability": "nonpayable",
      "type": "function"
    },
    {
      "inputs": [
        {
          "internalType": "uint256",
          "name": "_institutionId",
          "type": "uint256"
        },
        {
          "internalType": "address",
          "name": "_treasurerAddress",
          "type": "address"
        }
      ],
      "name": "disableTreasuryUsers",
      "outputs": [],
      "stateMutability": "nonpayable",
      "type": "function"
    },
    {
      "inputs": [
        {
          "internalType": "uint256",
          "name": "_institutionId",
          "type": "uint256"
        },
        {
          "internalType": "uint256",
          "name": "amount",
          "type": "uint256"
        },
        {
          "internalType": "address",
          "name": "remittanceAddress",
          "type": "address"
        }
      ],
      "name": "remitFunds",
      "outputs": [
        {
          "internalType": "bool",
          "name": "",
          "type": "bool"
        }
      ],
      "stateMutability": "nonpayable",
      "type": "function"
    },
    {
      "inputs": [],
      "name": "deposit",
      "outputs": [],
      "stateMutability": "payable",
      "type": "function",
      "payable": true
    },
    {
      "inputs": [
        {
          "internalType": "uint256",
          "name": "amount",
          "type": "uint256"
        },
        {
          "internalType": "address",
          "name": "destinationAccount",
          "type": "address"
        }
      ],
      "name": "disburse",
      "outputs": [],
      "stateMutability": "nonpayable",
      "type": "function"
    }
  ],
  "bytecode": "0x608060405260006001553480156200001657600080fd5b50620000376200002b6200003d60201b60201c565b6200004560201b60201c565b62000109565b600033905090565b60008060009054906101000a900473ffffffffffffffffffffffffffffffffffffffff169050816000806101000a81548173ffffffffffffffffffffffffffffffffffffffff021916908373ffffffffffffffffffffffffffffffffffffffff1602179055508173ffffffffffffffffffffffffffffffffffffffff168173ffffffffffffffffffffffffffffffffffffffff167f8be0079c531659141344cd1fd0a4f28419497f9722a3daafe3b4186f6b6457e060405160405180910390a35050565b61433a80620001196000396000f3fe608060405260043610620001635760003560e01c806377a4dba611620000c7578063bf2d9e0b1162000079578063bf2d9e0b14620004e2578063c047b6541462000512578063c3b59d00146200055b578063d0e30db0146200059f578063d31a957e14620005ab578063f2fde38b14620005ef576200016b565b806377a4dba6146200039c5780637884bc5814620003cc5780638c38e4b914620003fc5780638da5cb5b146200044057806393a21bac14620004705780639c6665fe14620004b4576200016b565b806346f388c4116200012157806346f388c4146200026c5780635162869e146200029a578063519db86114620002de57806351ead29c146200030e57806361ca860c1462000352578063715018a61462000382576200016b565b806301eb338614620001705780630f3e0292146200019e57806319528d3314620001cc5780631c61f62b14620002105780632b1c5f0d146200023e576200016b565b366200016b57005b600080fd5b3480156200017d57600080fd5b506200019c600480360381019062000196919062001c92565b6200061d565b005b348015620001ab57600080fd5b50620001ca6004803603810190620001c4919062001c92565b620008b0565b005b348015620001d957600080fd5b50620001f86004803603810190620001f2919062001cd9565b62000bbb565b60405162000207919062001d52565b60405180910390f35b3480156200021d57600080fd5b506200023c600480360381019062000236919062001c92565b62000ebb565b005b3480156200024b57600080fd5b506200026a600480360381019062000264919062001d6f565b62001059565b005b3480156200027957600080fd5b5062000298600480360381019062000292919062001de6565b62001120565b005b348015620002a757600080fd5b50620002c66004803603810190620002c0919062001f7a565b620012d9565b604051620002d59190620020ae565b60405180910390f35b348015620002eb57600080fd5b50620002f662001487565b604051620003059190620020dc565b60405180910390f35b3480156200031b57600080fd5b506200033a6004803603810190620003349190620020f9565b6200148d565b604051620003499190620020ae565b60405180910390f35b3480156200035f57600080fd5b506200036a620014cd565b604051620003799190620020dc565b60405180910390f35b3480156200038f57600080fd5b506200039a620014d3565b005b348015620003a957600080fd5b50620003b462001564565b604051620003c39190620020dc565b60405180910390f35b348015620003d957600080fd5b50620003e46200156a565b604051620003f39190620020ae565b60405180910390f35b3480156200040957600080fd5b506200042860048036038101906200042291906200212b565b62001590565b60405162000437919062001d52565b60405180910390f35b3480156200044d57600080fd5b5062000458620015bf565b604051620004679190620020ae565b60405180910390f35b3480156200047d57600080fd5b506200049c600480360381019062000496919062001d6f565b620015e8565b604051620004ab919062001d52565b60405180910390f35b348015620004c157600080fd5b50620004e06004803603810190620004da919062001de6565b62001608565b005b348015620004ef57600080fd5b50620004fa620017f3565b604051620005099190620020dc565b60405180910390f35b3480156200051f57600080fd5b506200053e6004803603810190620005389190620020f9565b620017f9565b604051620005529695949392919062002205565b60405180910390f35b3480156200056857600080fd5b50620005876004803603810190620005819190620020f9565b6200198e565b604051620005969190620022a6565b60405180910390f35b620005a9620019c1565b005b348015620005b857600080fd5b50620005d76004803603810190620005d19190620020f9565b620019c3565b604051620005e69190620020ae565b60405180910390f35b348015620005fc57600080fd5b506200061b600480360381019062000615919062001d6f565b62001a00565b005b6200062762001b04565b73ffffffffffffffffffffffffffffffffffffffff1662000647620015bf565b73ffffffffffffffffffffffffffffffffffffffff1614620006a0576040517f08c379a0000000000000000000000000000000000000000000000000000000008152600401620006979062002313565b60405180910390fd5b600073ffffffffffffffffffffffffffffffffffffffff166002600084815260200190815260200160002060009054906101000a900473ffffffffffffffffffffffffffffffffffffffff1673ffffffffffffffffffffffffffffffffffffffff16141562000746576040517f08c379a00000000000000000000000000000000000000000000000000000000081526004016200073d9062002385565b60405180910390fd5b600760008273ffffffffffffffffffffffffffffffffffffffff1673ffffffffffffffffffffffffffffffffffffffff168152602001908152602001600020600083815260200190815260200160002060009054906101000a900460ff16620007e6576040517f08c379a0000000000000000000000000000000000000000000000000000000008152600401620007dd90620023f7565b60405180910390fd5b600760008273ffffffffffffffffffffffffffffffffffffffff1673ffffffffffffffffffffffffffffffffffffffff168152602001908152602001600020600083815260200190815260200160002060009054906101000a900460ff1615600760008373ffffffffffffffffffffffffffffffffffffffff1673ffffffffffffffffffffffffffffffffffffffff168152602001908152602001600020600084815260200190815260200160002060006101000a81548160ff0219169083151502179055505050565b620008ba62001b04565b73ffffffffffffffffffffffffffffffffffffffff16620008da620015bf565b73ffffffffffffffffffffffffffffffffffffffff161462000933576040517f08c379a00000000000000000000000000000000000000000000000000000000081526004016200092a9062002313565b60405180910390fd5b600073ffffffffffffffffffffffffffffffffffffffff166002600084815260200190815260200160002060009054906101000a900473ffffffffffffffffffffffffffffffffffffffff1673ffffffffffffffffffffffffffffffffffffffff161415620009d9576040517f08c379a0000000000000000000000000000000000000000000000000000000008152600401620009d09062002385565b60405180910390fd5b60066000815480929190620009ee9062002448565b91905055506001600760008373ffffffffffffffffffffffffffffffffffffffff1673ffffffffffffffffffffffffffffffffffffffff168152602001908152602001600020600084815260200190815260200160002060006101000a81548160ff02191690831515021790555060006002600084815260200190815260200160002060009054906101000a900473ffffffffffffffffffffffffffffffffffffffff16905060008173ffffffffffffffffffffffffffffffffffffffff168360405160240162000ac09190620020ae565b6040516020818303038152906040527f5f3b1f3b000000000000000000000000000000000000000000000000000000007bffffffffffffffffffffffffffffffffffffffffffffffffffffffff19166020820180517bffffffffffffffffffffffffffffffffffffffffffffffffffffffff838183161783525050505060405162000b4c9190620024e3565b6000604051808303816000865af19150503d806000811462000b8b576040519150601f19603f3d011682016040523d82523d6000602084013e62000b90565b606091505b505090508062000bb5576006600081548092919062000baf90620024fc565b91905055505b50505050565b6000600460008373ffffffffffffffffffffffffffffffffffffffff1673ffffffffffffffffffffffffffffffffffffffff16815260200190815260200160002060009054906101000a900460ff1662000c4c576040517f08c379a000000000000000000000000000000000000000000000000000000000815260040162000c43906200257b565b60405180910390fd5b600760003373ffffffffffffffffffffffffffffffffffffffff1673ffffffffffffffffffffffffffffffffffffffff168152602001908152602001600020600085815260200190815260200160002060009054906101000a900460ff1662000cec576040517f08c379a000000000000000000000000000000000000000000000000000000000815260040162000ce390620023f7565b60405180910390fd5b60006002600086815260200190815260200160002060009054906101000a900473ffffffffffffffffffffffffffffffffffffffff169050600073ffffffffffffffffffffffffffffffffffffffff166002600087815260200190815260200160002060009054906101000a900473ffffffffffffffffffffffffffffffffffffffff1673ffffffffffffffffffffffffffffffffffffffff16141562000dca576040517f08c379a000000000000000000000000000000000000000000000000000000000815260040162000dc190620025ed565b60405180910390fd5b600081905060008173ffffffffffffffffffffffffffffffffffffffff1662f714ce87876040518363ffffffff1660e01b815260040162000e0d9291906200260f565b6020604051808303816000875af115801562000e2d573d6000803e3d6000fd5b505050506040513d601f19601f8201168201806040525081019062000e5391906200266d565b9050801562000eae578560095462000e6c91906200269f565b6009819055507f17040713250ec5f668a1c39e7939900e78558350dbaff0ebef34268dfa8ea4ac338760405162000ea5929190620026fc565b60405180910390a15b8093505050509392505050565b62000ec562001b04565b73ffffffffffffffffffffffffffffffffffffffff1662000ee5620015bf565b73ffffffffffffffffffffffffffffffffffffffff161462000f3e576040517f08c379a000000000000000000000000000000000000000000000000000000000815260040162000f359062002313565b60405180910390fd5b81600954101562000f86576040517f08c379a000000000000000000000000000000000000000000000000000000000815260040162000f7d9062002779565b60405180910390fd5b816009600082825462000f9a91906200279b565b9250508190555060008173ffffffffffffffffffffffffffffffffffffffff168360405162000fc99062002800565b60006040518083038185875af1925050503d806000811462001008576040519150601f19603f3d011682016040523d82523d6000602084013e6200100d565b606091505b505090508062001054576040517f08c379a00000000000000000000000000000000000000000000000000000000081526004016200104b9062002867565b60405180910390fd5b505050565b6200106362001b04565b73ffffffffffffffffffffffffffffffffffffffff1662001083620015bf565b73ffffffffffffffffffffffffffffffffffffffff1614620010dc576040517f08c379a0000000000000000000000000000000000000000000000000000000008152600401620010d39062002313565b60405180910390fd5b80600860006101000a81548173ffffffffffffffffffffffffffffffffffffffff021916908373ffffffffffffffffffffffffffffffffffffffff16021790555050565b6200112a62001b04565b73ffffffffffffffffffffffffffffffffffffffff166200114a620015bf565b73ffffffffffffffffffffffffffffffffffffffff1614620011a3576040517f08c379a00000000000000000000000000000000000000000000000000000000081526004016200119a9062002313565b60405180910390fd5b600460008273ffffffffffffffffffffffffffffffffffffffff1673ffffffffffffffffffffffffffffffffffffffff16815260200190815260200160002060009054906101000a900460ff1662001232576040517f08c379a00000000000000000000000000000000000000000000000000000000081526004016200122990620028ff565b60405180910390fd5b600460008273ffffffffffffffffffffffffffffffffffffffff1673ffffffffffffffffffffffffffffffffffffffff16815260200190815260200160002060009054906101000a900460ff1615600460008373ffffffffffffffffffffffffffffffffffffffff1673ffffffffffffffffffffffffffffffffffffffff16815260200190815260200160002060006101000a81548160ff02191690831515021790555050565b6000620012e562001b04565b73ffffffffffffffffffffffffffffffffffffffff1662001305620015bf565b73ffffffffffffffffffffffffffffffffffffffff16146200135e576040517f08c379a0000000000000000000000000000000000000000000000000000000008152600401620013559062002313565b60405180910390fd5b60016000815480929190620013739062002448565b919050555060008686868686600154604051620013909062001bd0565b620013a19695949392919062002205565b604051809103906000f080158015620013be573d6000803e3d6000fd5b5090508060026000600154815260200190815260200160002060006101000a81548173ffffffffffffffffffffffffffffffffffffffff021916908373ffffffffffffffffffffffffffffffffffffffff1602179055508073ffffffffffffffffffffffffffffffffffffffff163373ffffffffffffffffffffffffffffffffffffffff167f139f95acb8c7cf96e6f271e0e707e8a70fd49dba502bbaf8ac82956bf323275b604051620014729062002997565b60405180910390a38091505095945050505050565b60015481565b600581815481106200149e57600080fd5b906000526020600020016000915054906101000a900473ffffffffffffffffffffffffffffffffffffffff1681565b60065481565b620014dd62001b04565b73ffffffffffffffffffffffffffffffffffffffff16620014fd620015bf565b73ffffffffffffffffffffffffffffffffffffffff161462001556576040517f08c379a00000000000000000000000000000000000000000000000000000000081526004016200154d9062002313565b60405180910390fd5b62001562600062001b0c565b565b60035481565b600860009054906101000a900473ffffffffffffffffffffffffffffffffffffffff1681565b60076020528160005260406000206020528060005260406000206000915091509054906101000a900460ff1681565b60008060009054906101000a900473ffffffffffffffffffffffffffffffffffffffff16905090565b60046020528060005260406000206000915054906101000a900460ff1681565b6200161262001b04565b73ffffffffffffffffffffffffffffffffffffffff1662001632620015bf565b73ffffffffffffffffffffffffffffffffffffffff16146200168b576040517f08c379a0000000000000000000000000000000000000000000000000000000008152600401620016829062002313565b60405180910390fd5b600460008273ffffffffffffffffffffffffffffffffffffffff1673ffffffffffffffffffffffffffffffffffffffff16815260200190815260200160002060009054906101000a900460ff16156200171b576040517f08c379a0000000000000000000000000000000000000000000000000000000008152600401620017129062002a09565b60405180910390fd5b60036000815480929190620017309062002448565b91905055506005819080600181540180825580915050600190039060005260206000200160009091909190916101000a81548173ffffffffffffffffffffffffffffffffffffffff021916908373ffffffffffffffffffffffffffffffffffffffff1602179055506001600460008373ffffffffffffffffffffffffffffffffffffffff1673ffffffffffffffffffffffffffffffffffffffff16815260200190815260200160002060006101000a81548160ff02191690831515021790555050565b60095481565b606080606080606060008073ffffffffffffffffffffffffffffffffffffffff166002600089815260200190815260200160002060009054906101000a900473ffffffffffffffffffffffffffffffffffffffff1673ffffffffffffffffffffffffffffffffffffffff161415620018a8576040517f08c379a00000000000000000000000000000000000000000000000000000000081526004016200189f9062002a7b565b60405180910390fd5b60006002600089815260200190815260200160002060009054906101000a900473ffffffffffffffffffffffffffffffffffffffff1690506000806000806000808673ffffffffffffffffffffffffffffffffffffffff166370cd32516040518163ffffffff1660e01b8152600401600060405180830381865afa15801562001935573d6000803e3d6000fd5b505050506040513d6000823e3d601f19601f8201168201806040525081019062001960919062002b32565b9550955095509550955095508585858585859c509c509c509c509c509c505050505050505091939550919395565b60026020528060005260406000206000915054906101000a900473ffffffffffffffffffffffffffffffffffffffff1681565b565b60006002600083815260200190815260200160002060009054906101000a900473ffffffffffffffffffffffffffffffffffffffff169050919050565b62001a0a62001b04565b73ffffffffffffffffffffffffffffffffffffffff1662001a2a620015bf565b73ffffffffffffffffffffffffffffffffffffffff161462001a83576040517f08c379a000000000000000000000000000000000000000000000000000000000815260040162001a7a9062002313565b60405180910390fd5b600073ffffffffffffffffffffffffffffffffffffffff168173ffffffffffffffffffffffffffffffffffffffff16141562001af6576040517f08c379a000000000000000000000000000000000000000000000000000000000815260040162001aed9062002cdf565b60405180910390fd5b62001b018162001b0c565b50565b600033905090565b60008060009054906101000a900473ffffffffffffffffffffffffffffffffffffffff169050816000806101000a81548173ffffffffffffffffffffffffffffffffffffffff021916908373ffffffffffffffffffffffffffffffffffffffff1602179055508173ffffffffffffffffffffffffffffffffffffffff168173ffffffffffffffffffffffffffffffffffffffff167f8be0079c531659141344cd1fd0a4f28419497f9722a3daafe3b4186f6b6457e060405160405180910390a35050565b6116038062002d0283390190565b6000604051905090565b600080fd5b600080fd5b6000819050919050565b62001c078162001bf2565b811462001c1357600080fd5b50565b60008135905062001c278162001bfc565b92915050565b600073ffffffffffffffffffffffffffffffffffffffff82169050919050565b600062001c5a8262001c2d565b9050919050565b62001c6c8162001c4d565b811462001c7857600080fd5b50565b60008135905062001c8c8162001c61565b92915050565b6000806040838503121562001cac5762001cab62001be8565b5b600062001cbc8582860162001c16565b925050602062001ccf8582860162001c7b565b9150509250929050565b60008060006060848603121562001cf55762001cf462001be8565b5b600062001d058682870162001c16565b935050602062001d188682870162001c16565b925050604062001d2b8682870162001c7b565b9150509250925092565b60008115159050919050565b62001d4c8162001d35565b82525050565b600060208201905062001d69600083018462001d41565b92915050565b60006020828403121562001d885762001d8762001be8565b5b600062001d988482850162001c7b565b91505092915050565b600062001dae8262001c2d565b9050919050565b62001dc08162001da1565b811462001dcc57600080fd5b50565b60008135905062001de08162001db5565b92915050565b60006020828403121562001dff5762001dfe62001be8565b5b600062001e0f8482850162001dcf565b91505092915050565b600080fd5b600080fd5b6000601f19601f8301169050919050565b7f4e487b7100000000000000000000000000000000000000000000000000000000600052604160045260246000fd5b62001e6d8262001e22565b810181811067ffffffffffffffff8211171562001e8f5762001e8e62001e33565b5b80604052505050565b600062001ea462001bde565b905062001eb2828262001e62565b919050565b600067ffffffffffffffff82111562001ed55762001ed462001e33565b5b62001ee08262001e22565b9050602081019050919050565b82818337600083830152505050565b600062001f1362001f0d8462001eb7565b62001e98565b90508281526020810184848401111562001f325762001f3162001e1d565b5b62001f3f84828562001eed565b509392505050565b600082601f83011262001f5f5762001f5e62001e18565b5b813562001f7184826020860162001efc565b91505092915050565b600080600080600060a0868803121562001f995762001f9862001be8565b5b600086013567ffffffffffffffff81111562001fba5762001fb962001bed565b5b62001fc88882890162001f47565b955050602086013567ffffffffffffffff81111562001fec5762001feb62001bed565b5b62001ffa8882890162001f47565b945050604086013567ffffffffffffffff8111156200201e576200201d62001bed565b5b6200202c8882890162001f47565b935050606086013567ffffffffffffffff81111562002050576200204f62001bed565b5b6200205e8882890162001f47565b925050608086013567ffffffffffffffff81111562002082576200208162001bed565b5b620020908882890162001f47565b9150509295509295909350565b620020a88162001c4d565b82525050565b6000602082019050620020c560008301846200209d565b92915050565b620020d68162001bf2565b82525050565b6000602082019050620020f36000830184620020cb565b92915050565b60006020828403121562002112576200211162001be8565b5b6000620021228482850162001c16565b91505092915050565b6000806040838503121562002145576200214462001be8565b5b6000620021558582860162001c7b565b9250506020620021688582860162001c16565b9150509250929050565b600081519050919050565b600082825260208201905092915050565b60005b83811015620021ae57808201518184015260208101905062002191565b83811115620021be576000848401525b50505050565b6000620021d18262002172565b620021dd81856200217d565b9350620021ef8185602086016200218e565b620021fa8162001e22565b840191505092915050565b600060c0820190508181036000830152620022218189620021c4565b90508181036020830152620022378188620021c4565b905081810360408301526200224d8187620021c4565b90508181036060830152620022638186620021c4565b90508181036080830152620022798185620021c4565b90506200228a60a0830184620020cb565b979650505050505050565b620022a08162001da1565b82525050565b6000602082019050620022bd600083018462002295565b92915050565b7f4f776e61626c653a2063616c6c6572206973206e6f7420746865206f776e6572600082015250565b6000620022fb6020836200217d565b91506200230882620022c3565b602082019050919050565b600060208201905081810360008301526200232e81620022ec565b9050919050565b7f496e737469747574696f6e2061646472657373206e6f7420666f756e64210000600082015250565b60006200236d601e836200217d565b91506200237a8262002335565b602082019050919050565b60006020820190508181036000830152620023a0816200235e565b9050919050565b7f5472656173757279207573657220646f6573206e6f7420657869737400000000600082015250565b6000620023df601c836200217d565b9150620023ec82620023a7565b602082019050919050565b600060208201905081810360008301526200241281620023d0565b9050919050565b7f4e487b7100000000000000000000000000000000000000000000000000000000600052601160045260246000fd5b6000620024558262001bf2565b91507fffffffffffffffffffffffffffffffffffffffffffffffffffffffffffffffff8214156200248b576200248a62002419565b5b600182019050919050565b600081519050919050565b600081905092915050565b6000620024b98262002496565b620024c58185620024a1565b9350620024d78185602086016200218e565b80840191505092915050565b6000620024f18284620024ac565b915081905092915050565b6000620025098262001bf2565b9150600082141562002520576200251f62002419565b5b600182039050919050565b7f52656d697474616e63652061646472657373206e6f74206b6e6f776e21000000600082015250565b600062002563601d836200217d565b915062002570826200252b565b602082019050919050565b60006020820190508181036000830152620025968162002554565b9050919050565b7f496e737469747574696f6e20646f6573206e6f74206578697374000000000000600082015250565b6000620025d5601a836200217d565b9150620025e2826200259d565b602082019050919050565b600060208201905081810360008301526200260881620025c6565b9050919050565b6000604082019050620026266000830185620020cb565b6200263560208301846200209d565b9392505050565b620026478162001d35565b81146200265357600080fd5b50565b60008151905062002667816200263c565b92915050565b60006020828403121562002686576200268562001be8565b5b6000620026968482850162002656565b91505092915050565b6000620026ac8262001bf2565b9150620026b98362001bf2565b9250827fffffffffffffffffffffffffffffffffffffffffffffffffffffffffffffffff03821115620026f157620026f062002419565b5b828201905092915050565b60006040820190506200271360008301856200209d565b620027226020830184620020cb565b9392505050565b7f496e73756666696369656e742066756e64732e00000000000000000000000000600082015250565b6000620027616013836200217d565b91506200276e8262002729565b602082019050919050565b60006020820190508181036000830152620027948162002752565b9050919050565b6000620027a88262001bf2565b9150620027b58362001bf2565b925082821015620027cb57620027ca62002419565b5b828203905092915050565b50565b6000620027e8600083620024a1565b9150620027f582620027d6565b600082019050919050565b60006200280d82620027d9565b9150819050919050565b7f5769746864726177616c206661696c6564000000000000000000000000000000600082015250565b60006200284f6011836200217d565b91506200285c8262002817565b602082019050919050565b60006020820190508181036000830152620028828162002840565b9050919050565b7f52656d697474616e6365206164647265737320646f6573206e6f74206578697360008201527f7400000000000000000000000000000000000000000000000000000000000000602082015250565b6000620028e76021836200217d565b9150620028f48262002889565b604082019050919050565b600060208201905081810360008301526200291a81620028d8565b9050919050565b7f496e737469747574696f6e2063726561746564207375636365737366756c6c7960008201527f2e00000000000000000000000000000000000000000000000000000000000000602082015250565b60006200297f6021836200217d565b91506200298c8262002921565b604082019050919050565b60006020820190508181036000830152620029b28162002970565b9050919050565b7f4164647265737320616c72656164792065786973740000000000000000000000600082015250565b6000620029f16015836200217d565b9150620029fe82620029b9565b602082019050919050565b6000602082019050818103600083015262002a2481620029e2565b9050919050565b7f496e737469747574696f6e20646f6573206e6f742065786973742e0000000000600082015250565b600062002a63601b836200217d565b915062002a708262002a2b565b602082019050919050565b6000602082019050818103600083015262002a968162002a54565b9050919050565b600062002ab462002aae8462001eb7565b62001e98565b90508281526020810184848401111562002ad35762002ad262001e1d565b5b62002ae08482856200218e565b509392505050565b600082601f83011262002b005762002aff62001e18565b5b815162002b1284826020860162002a9d565b91505092915050565b60008151905062002b2c8162001bfc565b92915050565b60008060008060008060c0878903121562002b525762002b5162001be8565b5b600087015167ffffffffffffffff81111562002b735762002b7262001bed565b5b62002b8189828a0162002ae8565b965050602087015167ffffffffffffffff81111562002ba55762002ba462001bed565b5b62002bb389828a0162002ae8565b955050604087015167ffffffffffffffff81111562002bd75762002bd662001bed565b5b62002be589828a0162002ae8565b945050606087015167ffffffffffffffff81111562002c095762002c0862001bed565b5b62002c1789828a0162002ae8565b935050608087015167ffffffffffffffff81111562002c3b5762002c3a62001bed565b5b62002c4989828a0162002ae8565b92505060a062002c5c89828a0162002b1b565b9150509295509295509295565b7f4f776e61626c653a206e6577206f776e657220697320746865207a65726f206160008201527f6464726573730000000000000000000000000000000000000000000000000000602082015250565b600062002cc76026836200217d565b915062002cd48262002c69565b604082019050919050565b6000602082019050818103600083015262002cfa8162002cb8565b905091905056fe60806040523480156200001157600080fd5b506040516200160338038062001603833981810160405281019062000037919062000493565b620000576200004b6200013f60201b60201c565b6200014760201b60201c565b85600190805190602001906200006f9291906200020b565b508460029080519060200190620000889291906200020b565b508360039080519060200190620000a19291906200020b565b508260049080519060200190620000ba9291906200020b565b508160059080519060200190620000d39291906200020b565b50806006819055506001600860003373ffffffffffffffffffffffffffffffffffffffff1673ffffffffffffffffffffffffffffffffffffffff16815260200190815260200160002060006101000a81548160ff0219169083151502179055505050505050506200062f565b600033905090565b60008060009054906101000a900473ffffffffffffffffffffffffffffffffffffffff169050816000806101000a81548173ffffffffffffffffffffffffffffffffffffffff021916908373ffffffffffffffffffffffffffffffffffffffff1602179055508173ffffffffffffffffffffffffffffffffffffffff168173ffffffffffffffffffffffffffffffffffffffff167f8be0079c531659141344cd1fd0a4f28419497f9722a3daafe3b4186f6b6457e060405160405180910390a35050565b8280546200021990620005f9565b90600052602060002090601f0160209004810192826200023d576000855562000289565b82601f106200025857805160ff191683800117855562000289565b8280016001018555821562000289579182015b82811115620002885782518255916020019190600101906200026b565b5b5090506200029891906200029c565b5090565b5b80821115620002b75760008160009055506001016200029d565b5090565b6000604051905090565b600080fd5b600080fd5b600080fd5b600080fd5b6000601f19601f8301169050919050565b7f4e487b7100000000000000000000000000000000000000000000000000000000600052604160045260246000fd5b6200032482620002d9565b810181811067ffffffffffffffff82111715620003465762000345620002ea565b5b80604052505050565b60006200035b620002bb565b905062000369828262000319565b919050565b600067ffffffffffffffff8211156200038c576200038b620002ea565b5b6200039782620002d9565b9050602081019050919050565b60005b83811015620003c4578082015181840152602081019050620003a7565b83811115620003d4576000848401525b50505050565b6000620003f1620003eb846200036e565b6200034f565b90508281526020810184848401111562000410576200040f620002d4565b5b6200041d848285620003a4565b509392505050565b600082601f8301126200043d576200043c620002cf565b5b81516200044f848260208601620003da565b91505092915050565b6000819050919050565b6200046d8162000458565b81146200047957600080fd5b50565b6000815190506200048d8162000462565b92915050565b60008060008060008060c08789031215620004b357620004b2620002c5565b5b600087015167ffffffffffffffff811115620004d457620004d3620002ca565b5b620004e289828a0162000425565b965050602087015167ffffffffffffffff811115620005065762000505620002ca565b5b6200051489828a0162000425565b955050604087015167ffffffffffffffff811115620005385762000537620002ca565b5b6200054689828a0162000425565b945050606087015167ffffffffffffffff8111156200056a5762000569620002ca565b5b6200057889828a0162000425565b935050608087015167ffffffffffffffff8111156200059c576200059b620002ca565b5b620005aa89828a0162000425565b92505060a0620005bd89828a016200047c565b9150509295509295509295565b7f4e487b7100000000000000000000000000000000000000000000000000000000600052602260045260246000fd5b600060028204905060018216806200061257607f821691505b60208210811415620006295762000628620005ca565b5b50919050565b610fc4806200063f6000396000f3fe6080604052600436106100895760003560e01c80638be1789a116100595780638be1789a1461015b5780638da5cb5b14610198578063ab2f0e51146101c3578063d0e30db0146101ee578063f2fde38b146101f8576100a9565b8062f714ce146100ae5780635f3b1f3b146100eb57806370cd325114610114578063715018a614610144576100a9565b366100a95734600760008282546100a091906109e4565b92505081905550005b600080fd5b3480156100ba57600080fd5b506100d560048036038101906100d09190610ac9565b610221565b6040516100e29190610b24565b60405180910390f35b3480156100f757600080fd5b50610112600480360381019061010d9190610b3f565b610337565b005b34801561012057600080fd5b5061012961040e565b60405161013b96959493929190610c14565b60405180910390f35b34801561015057600080fd5b506101596106f5565b005b34801561016757600080fd5b50610182600480360381019061017d9190610b3f565b61077d565b60405161018f9190610b24565b60405180910390f35b3480156101a457600080fd5b506101ad61079d565b6040516101ba9190610ca7565b60405180910390f35b3480156101cf57600080fd5b506101d86107c6565b6040516101e59190610cc2565b60405180910390f35b6101f66107cc565b005b34801561020457600080fd5b5061021f600480360381019061021a9190610b3f565b6107e7565b005b6000826007541015610268576040517f08c379a000000000000000000000000000000000000000000000000000000000815260040161025f90610d29565b60405180910390fd5b826007600082825461027a9190610d49565b9250508190555060008273ffffffffffffffffffffffffffffffffffffffff16846040516102a790610dae565b60006040518083038185875af1925050503d80600081146102e4576040519150601f19603f3d011682016040523d82523d6000602084013e6102e9565b606091505b505090508061032d576040517f08c379a000000000000000000000000000000000000000000000000000000000815260040161032490610e0f565b60405180910390fd5b8091505092915050565b61033f6108df565b73ffffffffffffffffffffffffffffffffffffffff1661035d61079d565b73ffffffffffffffffffffffffffffffffffffffff16146103b3576040517f08c379a00000000000000000000000000000000000000000000000000000000081526004016103aa90610e7b565b60405180910390fd5b6001600860008373ffffffffffffffffffffffffffffffffffffffff1673ffffffffffffffffffffffffffffffffffffffff16815260200190815260200160002060006101000a81548160ff02191690831515021790555050565b606080606080606060006001600260036004600560065485805461043190610eca565b80601f016020809104026020016040519081016040528092919081815260200182805461045d90610eca565b80156104aa5780601f1061047f576101008083540402835291602001916104aa565b820191906000526020600020905b81548152906001019060200180831161048d57829003601f168201915b505050505095508480546104bd90610eca565b80601f01602080910402602001604051908101604052809291908181526020018280546104e990610eca565b80156105365780601f1061050b57610100808354040283529160200191610536565b820191906000526020600020905b81548152906001019060200180831161051957829003601f168201915b5050505050945083805461054990610eca565b80601f016020809104026020016040519081016040528092919081815260200182805461057590610eca565b80156105c25780601f10610597576101008083540402835291602001916105c2565b820191906000526020600020905b8154815290600101906020018083116105a557829003601f168201915b505050505093508280546105d590610eca565b80601f016020809104026020016040519081016040528092919081815260200182805461060190610eca565b801561064e5780601f106106235761010080835404028352916020019161064e565b820191906000526020600020905b81548152906001019060200180831161063157829003601f168201915b5050505050925081805461066190610eca565b80601f016020809104026020016040519081016040528092919081815260200182805461068d90610eca565b80156106da5780601f106106af576101008083540402835291602001916106da565b820191906000526020600020905b8154815290600101906020018083116106bd57829003601f168201915b50505050509150955095509550955095509550909192939495565b6106fd6108df565b73ffffffffffffffffffffffffffffffffffffffff1661071b61079d565b73ffffffffffffffffffffffffffffffffffffffff1614610771576040517f08c379a000000000000000000000000000000000000000000000000000000000815260040161076890610e7b565b60405180910390fd5b61077b60006108e7565b565b60086020528060005260406000206000915054906101000a900460ff1681565b60008060009054906101000a900473ffffffffffffffffffffffffffffffffffffffff16905090565b60075481565b34600760008282546107de91906109e4565b92505081905550565b6107ef6108df565b73ffffffffffffffffffffffffffffffffffffffff1661080d61079d565b73ffffffffffffffffffffffffffffffffffffffff1614610863576040517f08c379a000000000000000000000000000000000000000000000000000000000815260040161085a90610e7b565b60405180910390fd5b600073ffffffffffffffffffffffffffffffffffffffff168173ffffffffffffffffffffffffffffffffffffffff1614156108d3576040517f08c379a00000000000000000000000000000000000000000000000000000000081526004016108ca90610f6e565b60405180910390fd5b6108dc816108e7565b50565b600033905090565b60008060009054906101000a900473ffffffffffffffffffffffffffffffffffffffff169050816000806101000a81548173ffffffffffffffffffffffffffffffffffffffff021916908373ffffffffffffffffffffffffffffffffffffffff1602179055508173ffffffffffffffffffffffffffffffffffffffff168173ffffffffffffffffffffffffffffffffffffffff167f8be0079c531659141344cd1fd0a4f28419497f9722a3daafe3b4186f6b6457e060405160405180910390a35050565b6000819050919050565b7f4e487b7100000000000000000000000000000000000000000000000000000000600052601160045260246000fd5b60006109ef826109ab565b91506109fa836109ab565b9250827fffffffffffffffffffffffffffffffffffffffffffffffffffffffffffffffff03821115610a2f57610a2e6109b5565b5b828201905092915050565b600080fd5b610a48816109ab565b8114610a5357600080fd5b50565b600081359050610a6581610a3f565b92915050565b600073ffffffffffffffffffffffffffffffffffffffff82169050919050565b6000610a9682610a6b565b9050919050565b610aa681610a8b565b8114610ab157600080fd5b50565b600081359050610ac381610a9d565b92915050565b60008060408385031215610ae057610adf610a3a565b5b6000610aee85828601610a56565b9250506020610aff85828601610ab4565b9150509250929050565b60008115159050919050565b610b1e81610b09565b82525050565b6000602082019050610b396000830184610b15565b92915050565b600060208284031215610b5557610b54610a3a565b5b6000610b6384828501610ab4565b91505092915050565b600081519050919050565b600082825260208201905092915050565b60005b83811015610ba6578082015181840152602081019050610b8b565b83811115610bb5576000848401525b50505050565b6000601f19601f8301169050919050565b6000610bd782610b6c565b610be18185610b77565b9350610bf1818560208601610b88565b610bfa81610bbb565b840191505092915050565b610c0e816109ab565b82525050565b600060c0820190508181036000830152610c2e8189610bcc565b90508181036020830152610c428188610bcc565b90508181036040830152610c568187610bcc565b90508181036060830152610c6a8186610bcc565b90508181036080830152610c7e8185610bcc565b9050610c8d60a0830184610c05565b979650505050505050565b610ca181610a8b565b82525050565b6000602082019050610cbc6000830184610c98565b92915050565b6000602082019050610cd76000830184610c05565b92915050565b7f496e73756666696369656e742062616c616e63652e0000000000000000000000600082015250565b6000610d13601583610b77565b9150610d1e82610cdd565b602082019050919050565b60006020820190508181036000830152610d4281610d06565b9050919050565b6000610d54826109ab565b9150610d5f836109ab565b925082821015610d7257610d716109b5565b5b828203905092915050565b600081905092915050565b50565b6000610d98600083610d7d565b9150610da382610d88565b600082019050919050565b6000610db982610d8b565b9150819050919050565b7f5769746864726177616c206661696c6564000000000000000000000000000000600082015250565b6000610df9601183610b77565b9150610e0482610dc3565b602082019050919050565b60006020820190508181036000830152610e2881610dec565b9050919050565b7f4f776e61626c653a2063616c6c6572206973206e6f7420746865206f776e6572600082015250565b6000610e65602083610b77565b9150610e7082610e2f565b602082019050919050565b60006020820190508181036000830152610e9481610e58565b9050919050565b7f4e487b7100000000000000000000000000000000000000000000000000000000600052602260045260246000fd5b60006002820490506001821680610ee257607f821691505b60208210811415610ef657610ef5610e9b565b5b50919050565b7f4f776e61626c653a206e6577206f776e657220697320746865207a65726f206160008201527f6464726573730000000000000000000000000000000000000000000000000000602082015250565b6000610f58602683610b77565b9150610f6382610efc565b604082019050919050565b60006020820190508181036000830152610f8781610f4b565b905091905056fea26469706673582212202efe8da3745bf8da154220bc027f040d428ac57a17ada57942888a23bd9329b364736f6c634300080a0033a264697066735822122046ed00a9cdf4dd7d18eae99f2e1a1a0f3a89af3291a17ed96bea468b4a60d2c664736f6c634300080a0033",
  "immutableReferences": {},
  "source": "// SPDX-License-Identifier: MIT\npragma solidity >=0.8.0;\n\nimport \"./Institution.sol\";\nimport \"@openzeppelin/contracts/access/Ownable.sol\";\n\ncontract InstitutionManager is Ownable{\n\n    //Index to track the number of registered institution\n    uint public institutionIndex = 0;\n    \n    //Mapping for institutionIndex and associated contract address\n    mapping (uint=>address payable) public institutions;\n\n    //Index of the number of remittance addresses created\n    uint public remitanceAddressIndex;\n\n    //Mapping to create and enable remittance addresses\n    mapping (address=>bool) public remittanceAddresses;\n\n    address[] public centralAccounts;\n\n    uint public treasuryUserIndex;\n\n    mapping (address=>mapping(uint=>bool)) public treasuryUsers;\n    \n    address public recordManager;\n\n    uint public totalRevenue;\n\n    //Events\n    event InsitutionRecordCreated(address indexed createdBy, \n    address indexed institutionAddress, \n    string message);\n    event WithdrawRequest(address sender, uint amount);\n\n    event GetInstitution(string name, string contactAddress, string phone, string email, uint registrationNumber);\n\n    //Set the default record manager for the institution factory\n    //Only owner can update the record manager;\n    function setInstitutionRecordManager(address _recordManager) public onlyOwner{\n        recordManager = _recordManager;\n    }\n\n    //Modifier to check that record manager is set.\n    modifier isRecordManagerSet(){\n        require(recordManager!=address(0));\n        _;\n    }\n\n\n    function createInstitution(string memory _name,\n        string memory _contactAddress,\n        string memory _additionalInformation,\n        string memory _phone,\n        string memory _email) public  onlyOwner returns(address){\n            institutionIndex ++;\n            //Create a new institutionContract;\n            Institution institution = new Institution(_name, _contactAddress, _additionalInformation, _phone, _email, institutionIndex);\n            institutions[institutionIndex] = payable(address(institution));\n           \n            emit InsitutionRecordCreated(msg.sender, address(institution),\"Institution created successfully.\");\n            return address(institution);\n        }\n    \n    \n    function getInstitution(uint registrationNumber) public view returns (string memory,\n            string memory,\n            string memory,\n            string memory,\n            string memory,\n            uint256){\n\n        require(institutions[registrationNumber]!=address(0), \"Institution does not exist.\");\n        \n        Institution institution = Institution(institutions[registrationNumber]);\n        \n        (   string memory _name,\n            string memory _contactAddress,\n            string memory _additionalInformation,\n            string memory _phone,\n            string memory _email,\n            uint256 _registrationNumber) = institution.getInstitutionDetails();\n        return (_name, _contactAddress, _additionalInformation, _phone, _email, _registrationNumber);\n    }\n\n    function getInstitutionById(uint registrationNumber) public view returns(address){\n        return institutions[registrationNumber];\n    }\n    \n\n    //Remittance addresses\n    function addRemittanceAddresses(address payable _remitanceAddress) public onlyOwner {\n        require(!remittanceAddresses[_remitanceAddress], \"Address already exist\");\n        remitanceAddressIndex++;\n        centralAccounts.push(_remitanceAddress);\n        remittanceAddresses[_remitanceAddress] = true;\n    }\n\n    //Disable Remittance addresses\n    function disbaleRemittanceAddresses(address payable _remitanceAddress) public onlyOwner {\n        require(remittanceAddresses[_remitanceAddress], \"Remittance address does not exist\");\n        remittanceAddresses[_remitanceAddress] = !remittanceAddresses[_remitanceAddress];\n\n    }\n\n    //Can remit into destination addresses\n    function addTreasuryUsers(uint _institutionId, address _treasurerAddress) public onlyOwner {\n        require(institutions[_institutionId]!=address(0), \"Institution address not found!\");\n        treasuryUserIndex++;\n        treasuryUsers[_treasurerAddress][_institutionId] = true;\n        \n        address institutionAddress = institutions[_institutionId];\n        (bool success, ) = institutionAddress.call(abi.encodeWithSignature(\"addOwners(address)\", _treasurerAddress));\n        if(!success){\n            treasuryUserIndex--;\n        }\n    }\n\n    /**\n    This method is for disabling a treasury user from remitting funds\n    @param _institutionId institution id associated with the user\n     */\n    function disableTreasuryUsers(uint _institutionId, address _treasurerAddress) public onlyOwner{\n        require(institutions[_institutionId]!=address(0), \"Institution address not found!\");\n        require(treasuryUsers[_treasurerAddress][_institutionId], \"Treasury user does not exist\");\n        treasuryUsers[_treasurerAddress][_institutionId] = !treasuryUsers[_treasurerAddress][_institutionId];\n    }\n\n    /**\n    This method allows funds to be withdrawn from an institution account \n    @param _institutionId institution id to debit amount from\n    @param amount amount to be debited\n    @param remittanceAddress remittance address\n     */\n    function remitFunds(uint _institutionId, uint amount, address remittanceAddress) public returns(bool) {\n        \n        //Confirm address\n        require(remittanceAddresses[remittanceAddress], \"Remittance address not known!\");\n        // Confirm treasury user\n        require(treasuryUsers[msg.sender][_institutionId], \"Treasury user does not exist\");\n        address institutionAddress = institutions[_institutionId];\n\n        require(institutions[_institutionId]!=address(0), \"Institution does not exist\");\n        \n        //Initiate request\n        Institution institution = Institution(payable(institutionAddress));\n        // bool success = institution.withdraw(amount, remittanceAddress, msg.sender);\n        bool success = institution.withdraw(amount, remittanceAddress);\n        // (bool success, ) = institutionAddress.call(abi.encodeWithSignature(\"withdraw(uint, address)\", amount, remittanceAddress));\n        if(success){\n            totalRevenue= totalRevenue + amount;\n            emit WithdrawRequest(msg.sender, amount);\n        }\n        return success;\n\n    }\n\n   function deposit() external payable{}\n    receive() external payable{}\n\n    /**\n    @param amount The amount to be disbursed to a destination account\n    @param destinationAccount The beneficiary of the funds;\n     */\n    function disburse(uint amount, address destinationAccount) public onlyOwner{\n        require(totalRevenue>= amount, \"Insufficient funds.\");\n        totalRevenue-=amount;\n        (bool success, ) = payable(destinationAccount).call{value:amount}(\"\");\n        require(success, \"Withdrawal failed\");\n    }\n}",
  "sourcePath": "/Users/adewaleadeleye/projects/solidity/final-project/contracts/InstitutionManager.sol",
  "compiler": {
    "name": "solc",
    "version": "0.8.10+commit.fc410830.Emscripten.clang"
  },
  "schemaVersion": "3.4.3",
  "updatedAt": "2021-12-31T08:52:28.920Z",
  "networkType": "ethereum",
  "devdoc": {
    "kind": "dev",
    "methods": {
      "disableTreasuryUsers(uint256,address)": {
        "params": {
          "_institutionId": "institution id associated with the user"
        }
      },
      "disburse(uint256,address)": {
        "params": {
          "amount": "The amount to be disbursed to a destination account",
          "destinationAccount": "The beneficiary of the funds;"
        }
      },
      "owner()": {
        "details": "Returns the address of the current owner."
      },
      "remitFunds(uint256,uint256,address)": {
        "params": {
          "_institutionId": "institution id to debit amount from",
          "amount": "amount to be debited",
          "remittanceAddress": "remittance address"
        }
      },
      "renounceOwnership()": {
        "details": "Leaves the contract without owner. It will not be possible to call `onlyOwner` functions anymore. Can only be called by the current owner. NOTE: Renouncing ownership will leave the contract without an owner, thereby removing any functionality that is only available to the owner."
      },
      "transferOwnership(address)": {
        "details": "Transfers ownership of the contract to a new account (`newOwner`). Can only be called by the current owner."
      }
    },
    "version": 1
  },
  "userdoc": {
    "kind": "user",
    "methods": {
      "disableTreasuryUsers(uint256,address)": {
        "notice": "This method is for disabling a treasury user from remitting funds"
      },
      "remitFunds(uint256,uint256,address)": {
        "notice": "This method allows funds to be withdrawn from an institution account "
      }
    },
    "version": 1
  }
}