{
  "contractName": "InstitutionManager",
  "abi": [
    {
      "anonymous": false,
      "inputs": [
        {
          "indexed": false,
          "internalType": "string",
          "name": "name",
          "type": "string"
        },
        {
          "indexed": false,
          "internalType": "string",
          "name": "contactAddress",
          "type": "string"
        },
        {
          "indexed": false,
          "internalType": "string",
          "name": "phone",
          "type": "string"
        },
        {
          "indexed": false,
          "internalType": "string",
          "name": "email",
          "type": "string"
        },
        {
          "indexed": false,
          "internalType": "uint256",
          "name": "registrationNumber",
          "type": "uint256"
        }
      ],
      "name": "GetInstitution",
      "type": "event"
    },
    {
      "anonymous": false,
      "inputs": [
        {
          "indexed": true,
          "internalType": "address",
          "name": "createdBy",
          "type": "address"
        },
        {
          "indexed": true,
          "internalType": "address",
          "name": "institutionAddress",
          "type": "address"
        },
        {
          "indexed": false,
          "internalType": "string",
          "name": "message",
          "type": "string"
        }
      ],
      "name": "InsitutionRecordCreated",
      "type": "event"
    },
    {
      "anonymous": false,
      "inputs": [
        {
          "indexed": true,
          "internalType": "address",
          "name": "previousOwner",
          "type": "address"
        },
        {
          "indexed": true,
          "internalType": "address",
          "name": "newOwner",
          "type": "address"
        }
      ],
      "name": "OwnershipTransferred",
      "type": "event"
    },
    {
      "anonymous": false,
      "inputs": [
        {
          "indexed": false,
          "internalType": "address",
          "name": "sender",
          "type": "address"
        },
        {
          "indexed": false,
          "internalType": "uint256",
          "name": "amount",
          "type": "uint256"
        }
      ],
      "name": "WithdrawRequest",
      "type": "event"
    },
    {
      "inputs": [
        {
          "internalType": "uint256",
          "name": "",
          "type": "uint256"
        }
      ],
      "name": "centralAccounts",
      "outputs": [
        {
          "internalType": "address",
          "name": "",
          "type": "address"
        }
      ],
      "stateMutability": "view",
      "type": "function",
      "constant": true
    },
    {
      "inputs": [],
      "name": "institutionIndex",
      "outputs": [
        {
          "internalType": "uint256",
          "name": "",
          "type": "uint256"
        }
      ],
      "stateMutability": "view",
      "type": "function",
      "constant": true
    },
    {
      "inputs": [
        {
          "internalType": "uint256",
          "name": "",
          "type": "uint256"
        }
      ],
      "name": "institutions",
      "outputs": [
        {
          "internalType": "address payable",
          "name": "",
          "type": "address"
        }
      ],
      "stateMutability": "view",
      "type": "function",
      "constant": true
    },
    {
      "inputs": [],
      "name": "owner",
      "outputs": [
        {
          "internalType": "address",
          "name": "",
          "type": "address"
        }
      ],
      "stateMutability": "view",
      "type": "function",
      "constant": true
    },
    {
      "inputs": [],
      "name": "recordManager",
      "outputs": [
        {
          "internalType": "address",
          "name": "",
          "type": "address"
        }
      ],
      "stateMutability": "view",
      "type": "function",
      "constant": true
    },
    {
      "inputs": [],
      "name": "remitanceAddressIndex",
      "outputs": [
        {
          "internalType": "uint256",
          "name": "",
          "type": "uint256"
        }
      ],
      "stateMutability": "view",
      "type": "function",
      "constant": true
    },
    {
      "inputs": [
        {
          "internalType": "address",
          "name": "",
          "type": "address"
        }
      ],
      "name": "remittanceAddresses",
      "outputs": [
        {
          "internalType": "bool",
          "name": "",
          "type": "bool"
        }
      ],
      "stateMutability": "view",
      "type": "function",
      "constant": true
    },
    {
      "inputs": [],
      "name": "renounceOwnership",
      "outputs": [],
      "stateMutability": "nonpayable",
      "type": "function"
    },
    {
      "inputs": [],
      "name": "totalRevenue",
      "outputs": [
        {
          "internalType": "uint256",
          "name": "",
          "type": "uint256"
        }
      ],
      "stateMutability": "view",
      "type": "function",
      "constant": true
    },
    {
      "inputs": [
        {
          "internalType": "address",
          "name": "newOwner",
          "type": "address"
        }
      ],
      "name": "transferOwnership",
      "outputs": [],
      "stateMutability": "nonpayable",
      "type": "function"
    },
    {
      "inputs": [],
      "name": "treasuryUserIndex",
      "outputs": [
        {
          "internalType": "uint256",
          "name": "",
          "type": "uint256"
        }
      ],
      "stateMutability": "view",
      "type": "function",
      "constant": true
    },
    {
      "inputs": [
        {
          "internalType": "address",
          "name": "",
          "type": "address"
        },
        {
          "internalType": "uint256",
          "name": "",
          "type": "uint256"
        }
      ],
      "name": "treasuryUsers",
      "outputs": [
        {
          "internalType": "bool",
          "name": "",
          "type": "bool"
        }
      ],
      "stateMutability": "view",
      "type": "function",
      "constant": true
    },
    {
      "stateMutability": "payable",
      "type": "receive",
      "payable": true
    },
    {
      "inputs": [
        {
          "internalType": "address",
          "name": "_recordManager",
          "type": "address"
        }
      ],
      "name": "setInstitutionRecordManager",
      "outputs": [],
      "stateMutability": "nonpayable",
      "type": "function"
    },
    {
      "inputs": [
        {
          "internalType": "string",
          "name": "_name",
          "type": "string"
        },
        {
          "internalType": "string",
          "name": "_contactAddress",
          "type": "string"
        },
        {
          "internalType": "string",
          "name": "_additionalInformation",
          "type": "string"
        },
        {
          "internalType": "string",
          "name": "_phone",
          "type": "string"
        },
        {
          "internalType": "string",
          "name": "_email",
          "type": "string"
        }
      ],
      "name": "createInstitution",
      "outputs": [
        {
          "internalType": "address",
          "name": "",
          "type": "address"
        }
      ],
      "stateMutability": "nonpayable",
      "type": "function"
    },
    {
      "inputs": [
        {
          "internalType": "uint256",
          "name": "registrationNumber",
          "type": "uint256"
        }
      ],
      "name": "getInstitution",
      "outputs": [
        {
          "internalType": "string",
          "name": "",
          "type": "string"
        },
        {
          "internalType": "string",
          "name": "",
          "type": "string"
        },
        {
          "internalType": "string",
          "name": "",
          "type": "string"
        },
        {
          "internalType": "string",
          "name": "",
          "type": "string"
        },
        {
          "internalType": "string",
          "name": "",
          "type": "string"
        },
        {
          "internalType": "uint256",
          "name": "",
          "type": "uint256"
        }
      ],
      "stateMutability": "view",
      "type": "function",
      "constant": true
    },
    {
      "inputs": [
        {
          "internalType": "uint256",
          "name": "registrationNumber",
          "type": "uint256"
        }
      ],
      "name": "getInstitutionById",
      "outputs": [
        {
          "internalType": "address",
          "name": "",
          "type": "address"
        }
      ],
      "stateMutability": "view",
      "type": "function",
      "constant": true
    },
    {
      "inputs": [
        {
          "internalType": "address payable",
          "name": "_remitanceAddress",
          "type": "address"
        }
      ],
      "name": "addRemittanceAddresses",
      "outputs": [],
      "stateMutability": "nonpayable",
      "type": "function"
    },
    {
      "inputs": [
        {
          "internalType": "address payable",
          "name": "_remitanceAddress",
          "type": "address"
        }
      ],
      "name": "disbaleRemittanceAddresses",
      "outputs": [],
      "stateMutability": "nonpayable",
      "type": "function"
    },
    {
      "inputs": [
        {
          "internalType": "uint256",
          "name": "_institutionId",
          "type": "uint256"
        },
        {
          "internalType": "address",
          "name": "_treasurerAddress",
          "type": "address"
        }
      ],
      "name": "addTreasuryUsers",
      "outputs": [],
      "stateMutability": "nonpayable",
      "type": "function"
    },
    {
      "inputs": [
        {
          "internalType": "uint256",
          "name": "_institutionId",
          "type": "uint256"
        },
        {
          "internalType": "address",
          "name": "_treasurerAddress",
          "type": "address"
        }
      ],
      "name": "disableTreasuryUsers",
      "outputs": [],
      "stateMutability": "nonpayable",
      "type": "function"
    },
    {
      "inputs": [
        {
          "internalType": "uint256",
          "name": "_institutionId",
          "type": "uint256"
        },
        {
          "internalType": "uint256",
          "name": "amount",
          "type": "uint256"
        },
        {
          "internalType": "address",
          "name": "remittanceAddress",
          "type": "address"
        }
      ],
      "name": "remitFunds",
      "outputs": [
        {
          "internalType": "bool",
          "name": "",
          "type": "bool"
        }
      ],
      "stateMutability": "nonpayable",
      "type": "function"
    },
    {
      "inputs": [],
      "name": "deposit",
      "outputs": [],
      "stateMutability": "payable",
      "type": "function",
      "payable": true
    }
  ],
  "bytecode": "0x608060405260006001553480156200001657600080fd5b50620000376200002b6200003d60201b60201c565b6200004560201b60201c565b62000109565b600033905090565b60008060009054906101000a900473ffffffffffffffffffffffffffffffffffffffff169050816000806101000a81548173ffffffffffffffffffffffffffffffffffffffff021916908373ffffffffffffffffffffffffffffffffffffffff1602179055508173ffffffffffffffffffffffffffffffffffffffff168173ffffffffffffffffffffffffffffffffffffffff167f8be0079c531659141344cd1fd0a4f28419497f9722a3daafe3b4186f6b6457e060405160405180910390a35050565b613f5980620001196000396000f3fe608060405260043610620001575760003560e01c80637884bc5811620000bb578063bf2d9e0b1162000079578063bf2d9e0b14620004a8578063c047b65414620004d8578063c3b59d001462000521578063d0e30db01462000565578063d31a957e1462000571578063f2fde38b14620005b5576200015f565b80637884bc5814620003925780638c38e4b914620003c25780638da5cb5b146200040657806393a21bac14620004365780639c6665fe146200047a576200015f565b80635162869e11620001155780635162869e1462000260578063519db86114620002a457806351ead29c14620002d457806361ca860c1462000318578063715018a6146200034857806377a4dba61462000362576200015f565b806301eb338614620001645780630f3e0292146200019257806319528d3314620001c05780632b1c5f0d146200020457806346f388c41462000232576200015f565b366200015f57005b600080fd5b3480156200017157600080fd5b506200019060048036038101906200018a919062001a11565b620005e3565b005b3480156200019f57600080fd5b50620001be6004803603810190620001b8919062001a11565b62000819565b005b348015620001cd57600080fd5b50620001ec6004803603810190620001e6919062001a58565b62000b24565b604051620001fb919062001ad1565b60405180910390f35b3480156200021157600080fd5b506200023060048036038101906200022a919062001aee565b62000e24565b005b3480156200023f57600080fd5b506200025e600480360381019062000258919062001b65565b62000eeb565b005b3480156200026d57600080fd5b506200028c600480360381019062000286919062001cf9565b62001058565b6040516200029b919062001e2d565b60405180910390f35b348015620002b157600080fd5b50620002bc62001206565b604051620002cb919062001e5b565b60405180910390f35b348015620002e157600080fd5b50620003006004803603810190620002fa919062001e78565b6200120c565b6040516200030f919062001e2d565b60405180910390f35b3480156200032557600080fd5b50620003306200124c565b6040516200033f919062001e5b565b60405180910390f35b3480156200035557600080fd5b506200036062001252565b005b3480156200036f57600080fd5b506200037a620012e3565b60405162000389919062001e5b565b60405180910390f35b3480156200039f57600080fd5b50620003aa620012e9565b604051620003b9919062001e2d565b60405180910390f35b348015620003cf57600080fd5b50620003ee6004803603810190620003e8919062001eaa565b6200130f565b604051620003fd919062001ad1565b60405180910390f35b3480156200041357600080fd5b506200041e6200133e565b6040516200042d919062001e2d565b60405180910390f35b3480156200044357600080fd5b506200046260048036038101906200045c919062001aee565b62001367565b60405162000471919062001ad1565b60405180910390f35b3480156200048757600080fd5b50620004a66004803603810190620004a0919062001b65565b62001387565b005b348015620004b557600080fd5b50620004c062001572565b604051620004cf919062001e5b565b60405180910390f35b348015620004e557600080fd5b50620005046004803603810190620004fe919062001e78565b62001578565b604051620005189695949392919062001f84565b60405180910390f35b3480156200052e57600080fd5b506200054d600480360381019062000547919062001e78565b6200170d565b6040516200055c919062002025565b60405180910390f35b6200056f62001740565b005b3480156200057e57600080fd5b506200059d600480360381019062000597919062001e78565b62001742565b604051620005ac919062001e2d565b60405180910390f35b348015620005c257600080fd5b50620005e16004803603810190620005db919062001aee565b6200177f565b005b620005ed62001883565b73ffffffffffffffffffffffffffffffffffffffff166200060d6200133e565b73ffffffffffffffffffffffffffffffffffffffff161462000666576040517f08c379a00000000000000000000000000000000000000000000000000000000081526004016200065d9062002092565b60405180910390fd5b600073ffffffffffffffffffffffffffffffffffffffff166002600084815260200190815260200160002060009054906101000a900473ffffffffffffffffffffffffffffffffffffffff1673ffffffffffffffffffffffffffffffffffffffff1614156200070c576040517f08c379a0000000000000000000000000000000000000000000000000000000008152600401620007039062002104565b60405180910390fd5b600760008273ffffffffffffffffffffffffffffffffffffffff1673ffffffffffffffffffffffffffffffffffffffff168152602001908152602001600020600083815260200190815260200160002060009054906101000a900460ff16620007ac576040517f08c379a0000000000000000000000000000000000000000000000000000000008152600401620007a39062002176565b60405180910390fd5b6000600760008373ffffffffffffffffffffffffffffffffffffffff1673ffffffffffffffffffffffffffffffffffffffff168152602001908152602001600020600084815260200190815260200160002060006101000a81548160ff0219169083151502179055505050565b6200082362001883565b73ffffffffffffffffffffffffffffffffffffffff16620008436200133e565b73ffffffffffffffffffffffffffffffffffffffff16146200089c576040517f08c379a0000000000000000000000000000000000000000000000000000000008152600401620008939062002092565b60405180910390fd5b600073ffffffffffffffffffffffffffffffffffffffff166002600084815260200190815260200160002060009054906101000a900473ffffffffffffffffffffffffffffffffffffffff1673ffffffffffffffffffffffffffffffffffffffff16141562000942576040517f08c379a0000000000000000000000000000000000000000000000000000000008152600401620009399062002104565b60405180910390fd5b600660008154809291906200095790620021c7565b91905055506001600760008373ffffffffffffffffffffffffffffffffffffffff1673ffffffffffffffffffffffffffffffffffffffff168152602001908152602001600020600084815260200190815260200160002060006101000a81548160ff02191690831515021790555060006002600084815260200190815260200160002060009054906101000a900473ffffffffffffffffffffffffffffffffffffffff16905060008173ffffffffffffffffffffffffffffffffffffffff168360405160240162000a29919062001e2d565b6040516020818303038152906040527f5f3b1f3b000000000000000000000000000000000000000000000000000000007bffffffffffffffffffffffffffffffffffffffffffffffffffffffff19166020820180517bffffffffffffffffffffffffffffffffffffffffffffffffffffffff838183161783525050505060405162000ab5919062002262565b6000604051808303816000865af19150503d806000811462000af4576040519150601f19603f3d011682016040523d82523d6000602084013e62000af9565b606091505b505090508062000b1e576006600081548092919062000b18906200227b565b91905055505b50505050565b6000600460008373ffffffffffffffffffffffffffffffffffffffff1673ffffffffffffffffffffffffffffffffffffffff16815260200190815260200160002060009054906101000a900460ff1662000bb5576040517f08c379a000000000000000000000000000000000000000000000000000000000815260040162000bac90620022fa565b60405180910390fd5b600760003373ffffffffffffffffffffffffffffffffffffffff1673ffffffffffffffffffffffffffffffffffffffff168152602001908152602001600020600085815260200190815260200160002060009054906101000a900460ff1662000c55576040517f08c379a000000000000000000000000000000000000000000000000000000000815260040162000c4c9062002176565b60405180910390fd5b60006002600086815260200190815260200160002060009054906101000a900473ffffffffffffffffffffffffffffffffffffffff169050600073ffffffffffffffffffffffffffffffffffffffff166002600087815260200190815260200160002060009054906101000a900473ffffffffffffffffffffffffffffffffffffffff1673ffffffffffffffffffffffffffffffffffffffff16141562000d33576040517f08c379a000000000000000000000000000000000000000000000000000000000815260040162000d2a906200236c565b60405180910390fd5b600081905060008173ffffffffffffffffffffffffffffffffffffffff1662f714ce87876040518363ffffffff1660e01b815260040162000d769291906200238e565b6020604051808303816000875af115801562000d96573d6000803e3d6000fd5b505050506040513d601f19601f8201168201806040525081019062000dbc9190620023ec565b9050801562000e17578560095462000dd591906200241e565b6009819055507f17040713250ec5f668a1c39e7939900e78558350dbaff0ebef34268dfa8ea4ac338760405162000e0e9291906200247b565b60405180910390a15b8093505050509392505050565b62000e2e62001883565b73ffffffffffffffffffffffffffffffffffffffff1662000e4e6200133e565b73ffffffffffffffffffffffffffffffffffffffff161462000ea7576040517f08c379a000000000000000000000000000000000000000000000000000000000815260040162000e9e9062002092565b60405180910390fd5b80600860006101000a81548173ffffffffffffffffffffffffffffffffffffffff021916908373ffffffffffffffffffffffffffffffffffffffff16021790555050565b62000ef562001883565b73ffffffffffffffffffffffffffffffffffffffff1662000f156200133e565b73ffffffffffffffffffffffffffffffffffffffff161462000f6e576040517f08c379a000000000000000000000000000000000000000000000000000000000815260040162000f659062002092565b60405180910390fd5b600460008273ffffffffffffffffffffffffffffffffffffffff1673ffffffffffffffffffffffffffffffffffffffff16815260200190815260200160002060009054906101000a900460ff1662000ffd576040517f08c379a000000000000000000000000000000000000000000000000000000000815260040162000ff4906200251e565b60405180910390fd5b6000600460008373ffffffffffffffffffffffffffffffffffffffff1673ffffffffffffffffffffffffffffffffffffffff16815260200190815260200160002060006101000a81548160ff02191690831515021790555050565b60006200106462001883565b73ffffffffffffffffffffffffffffffffffffffff16620010846200133e565b73ffffffffffffffffffffffffffffffffffffffff1614620010dd576040517f08c379a0000000000000000000000000000000000000000000000000000000008152600401620010d49062002092565b60405180910390fd5b60016000815480929190620010f290620021c7565b9190505550600086868686866001546040516200110f906200194f565b620011209695949392919062001f84565b604051809103906000f0801580156200113d573d6000803e3d6000fd5b5090508060026000600154815260200190815260200160002060006101000a81548173ffffffffffffffffffffffffffffffffffffffff021916908373ffffffffffffffffffffffffffffffffffffffff1602179055508073ffffffffffffffffffffffffffffffffffffffff163373ffffffffffffffffffffffffffffffffffffffff167f139f95acb8c7cf96e6f271e0e707e8a70fd49dba502bbaf8ac82956bf323275b604051620011f190620025b6565b60405180910390a38091505095945050505050565b60015481565b600581815481106200121d57600080fd5b906000526020600020016000915054906101000a900473ffffffffffffffffffffffffffffffffffffffff1681565b60065481565b6200125c62001883565b73ffffffffffffffffffffffffffffffffffffffff166200127c6200133e565b73ffffffffffffffffffffffffffffffffffffffff1614620012d5576040517f08c379a0000000000000000000000000000000000000000000000000000000008152600401620012cc9062002092565b60405180910390fd5b620012e160006200188b565b565b60035481565b600860009054906101000a900473ffffffffffffffffffffffffffffffffffffffff1681565b60076020528160005260406000206020528060005260406000206000915091509054906101000a900460ff1681565b60008060009054906101000a900473ffffffffffffffffffffffffffffffffffffffff16905090565b60046020528060005260406000206000915054906101000a900460ff1681565b6200139162001883565b73ffffffffffffffffffffffffffffffffffffffff16620013b16200133e565b73ffffffffffffffffffffffffffffffffffffffff16146200140a576040517f08c379a0000000000000000000000000000000000000000000000000000000008152600401620014019062002092565b60405180910390fd5b600460008273ffffffffffffffffffffffffffffffffffffffff1673ffffffffffffffffffffffffffffffffffffffff16815260200190815260200160002060009054906101000a900460ff16156200149a576040517f08c379a0000000000000000000000000000000000000000000000000000000008152600401620014919062002628565b60405180910390fd5b60036000815480929190620014af90620021c7565b91905055506005819080600181540180825580915050600190039060005260206000200160009091909190916101000a81548173ffffffffffffffffffffffffffffffffffffffff021916908373ffffffffffffffffffffffffffffffffffffffff1602179055506001600460008373ffffffffffffffffffffffffffffffffffffffff1673ffffffffffffffffffffffffffffffffffffffff16815260200190815260200160002060006101000a81548160ff02191690831515021790555050565b60095481565b606080606080606060008073ffffffffffffffffffffffffffffffffffffffff166002600089815260200190815260200160002060009054906101000a900473ffffffffffffffffffffffffffffffffffffffff1673ffffffffffffffffffffffffffffffffffffffff16141562001627576040517f08c379a00000000000000000000000000000000000000000000000000000000081526004016200161e906200269a565b60405180910390fd5b60006002600089815260200190815260200160002060009054906101000a900473ffffffffffffffffffffffffffffffffffffffff1690506000806000806000808673ffffffffffffffffffffffffffffffffffffffff166370cd32516040518163ffffffff1660e01b8152600401600060405180830381865afa158015620016b4573d6000803e3d6000fd5b505050506040513d6000823e3d601f19601f82011682018060405250810190620016df919062002751565b9550955095509550955095508585858585859c509c509c509c509c509c505050505050505091939550919395565b60026020528060005260406000206000915054906101000a900473ffffffffffffffffffffffffffffffffffffffff1681565b565b60006002600083815260200190815260200160002060009054906101000a900473ffffffffffffffffffffffffffffffffffffffff169050919050565b6200178962001883565b73ffffffffffffffffffffffffffffffffffffffff16620017a96200133e565b73ffffffffffffffffffffffffffffffffffffffff161462001802576040517f08c379a0000000000000000000000000000000000000000000000000000000008152600401620017f99062002092565b60405180910390fd5b600073ffffffffffffffffffffffffffffffffffffffff168173ffffffffffffffffffffffffffffffffffffffff16141562001875576040517f08c379a00000000000000000000000000000000000000000000000000000000081526004016200186c90620028fe565b60405180910390fd5b62001880816200188b565b50565b600033905090565b60008060009054906101000a900473ffffffffffffffffffffffffffffffffffffffff169050816000806101000a81548173ffffffffffffffffffffffffffffffffffffffff021916908373ffffffffffffffffffffffffffffffffffffffff1602179055508173ffffffffffffffffffffffffffffffffffffffff168173ffffffffffffffffffffffffffffffffffffffff167f8be0079c531659141344cd1fd0a4f28419497f9722a3daafe3b4186f6b6457e060405160405180910390a35050565b611603806200292183390190565b6000604051905090565b600080fd5b600080fd5b6000819050919050565b620019868162001971565b81146200199257600080fd5b50565b600081359050620019a6816200197b565b92915050565b600073ffffffffffffffffffffffffffffffffffffffff82169050919050565b6000620019d982620019ac565b9050919050565b620019eb81620019cc565b8114620019f757600080fd5b50565b60008135905062001a0b81620019e0565b92915050565b6000806040838503121562001a2b5762001a2a62001967565b5b600062001a3b8582860162001995565b925050602062001a4e85828601620019fa565b9150509250929050565b60008060006060848603121562001a745762001a7362001967565b5b600062001a848682870162001995565b935050602062001a978682870162001995565b925050604062001aaa86828701620019fa565b9150509250925092565b60008115159050919050565b62001acb8162001ab4565b82525050565b600060208201905062001ae8600083018462001ac0565b92915050565b60006020828403121562001b075762001b0662001967565b5b600062001b1784828501620019fa565b91505092915050565b600062001b2d82620019ac565b9050919050565b62001b3f8162001b20565b811462001b4b57600080fd5b50565b60008135905062001b5f8162001b34565b92915050565b60006020828403121562001b7e5762001b7d62001967565b5b600062001b8e8482850162001b4e565b91505092915050565b600080fd5b600080fd5b6000601f19601f8301169050919050565b7f4e487b7100000000000000000000000000000000000000000000000000000000600052604160045260246000fd5b62001bec8262001ba1565b810181811067ffffffffffffffff8211171562001c0e5762001c0d62001bb2565b5b80604052505050565b600062001c236200195d565b905062001c31828262001be1565b919050565b600067ffffffffffffffff82111562001c545762001c5362001bb2565b5b62001c5f8262001ba1565b9050602081019050919050565b82818337600083830152505050565b600062001c9262001c8c8462001c36565b62001c17565b90508281526020810184848401111562001cb15762001cb062001b9c565b5b62001cbe84828562001c6c565b509392505050565b600082601f83011262001cde5762001cdd62001b97565b5b813562001cf084826020860162001c7b565b91505092915050565b600080600080600060a0868803121562001d185762001d1762001967565b5b600086013567ffffffffffffffff81111562001d395762001d386200196c565b5b62001d478882890162001cc6565b955050602086013567ffffffffffffffff81111562001d6b5762001d6a6200196c565b5b62001d798882890162001cc6565b945050604086013567ffffffffffffffff81111562001d9d5762001d9c6200196c565b5b62001dab8882890162001cc6565b935050606086013567ffffffffffffffff81111562001dcf5762001dce6200196c565b5b62001ddd8882890162001cc6565b925050608086013567ffffffffffffffff81111562001e015762001e006200196c565b5b62001e0f8882890162001cc6565b9150509295509295909350565b62001e2781620019cc565b82525050565b600060208201905062001e44600083018462001e1c565b92915050565b62001e558162001971565b82525050565b600060208201905062001e72600083018462001e4a565b92915050565b60006020828403121562001e915762001e9062001967565b5b600062001ea18482850162001995565b91505092915050565b6000806040838503121562001ec45762001ec362001967565b5b600062001ed485828601620019fa565b925050602062001ee78582860162001995565b9150509250929050565b600081519050919050565b600082825260208201905092915050565b60005b8381101562001f2d57808201518184015260208101905062001f10565b8381111562001f3d576000848401525b50505050565b600062001f508262001ef1565b62001f5c818562001efc565b935062001f6e81856020860162001f0d565b62001f798162001ba1565b840191505092915050565b600060c082019050818103600083015262001fa0818962001f43565b9050818103602083015262001fb6818862001f43565b9050818103604083015262001fcc818762001f43565b9050818103606083015262001fe2818662001f43565b9050818103608083015262001ff8818562001f43565b90506200200960a083018462001e4a565b979650505050505050565b6200201f8162001b20565b82525050565b60006020820190506200203c600083018462002014565b92915050565b7f4f776e61626c653a2063616c6c6572206973206e6f7420746865206f776e6572600082015250565b60006200207a60208362001efc565b9150620020878262002042565b602082019050919050565b60006020820190508181036000830152620020ad816200206b565b9050919050565b7f496e737469747574696f6e2061646472657373206e6f7420666f756e64210000600082015250565b6000620020ec601e8362001efc565b9150620020f982620020b4565b602082019050919050565b600060208201905081810360008301526200211f81620020dd565b9050919050565b7f5472656173757279207573657220646f6573206e6f7420657869737400000000600082015250565b60006200215e601c8362001efc565b91506200216b8262002126565b602082019050919050565b6000602082019050818103600083015262002191816200214f565b9050919050565b7f4e487b7100000000000000000000000000000000000000000000000000000000600052601160045260246000fd5b6000620021d48262001971565b91507fffffffffffffffffffffffffffffffffffffffffffffffffffffffffffffffff8214156200220a576200220962002198565b5b600182019050919050565b600081519050919050565b600081905092915050565b6000620022388262002215565b62002244818562002220565b93506200225681856020860162001f0d565b80840191505092915050565b60006200227082846200222b565b915081905092915050565b6000620022888262001971565b915060008214156200229f576200229e62002198565b5b600182039050919050565b7f52656d697474616e63652061646472657373206e6f74206b6e6f776e21000000600082015250565b6000620022e2601d8362001efc565b9150620022ef82620022aa565b602082019050919050565b600060208201905081810360008301526200231581620022d3565b9050919050565b7f496e737469747574696f6e20646f6573206e6f74206578697374000000000000600082015250565b600062002354601a8362001efc565b915062002361826200231c565b602082019050919050565b60006020820190508181036000830152620023878162002345565b9050919050565b6000604082019050620023a5600083018562001e4a565b620023b4602083018462001e1c565b9392505050565b620023c68162001ab4565b8114620023d257600080fd5b50565b600081519050620023e681620023bb565b92915050565b60006020828403121562002405576200240462001967565b5b60006200241584828501620023d5565b91505092915050565b60006200242b8262001971565b9150620024388362001971565b9250827fffffffffffffffffffffffffffffffffffffffffffffffffffffffffffffffff0382111562002470576200246f62002198565b5b828201905092915050565b600060408201905062002492600083018562001e1c565b620024a1602083018462001e4a565b9392505050565b7f52656d697474616e6365206164647265737320646f6573206e6f74206578697360008201527f7400000000000000000000000000000000000000000000000000000000000000602082015250565b60006200250660218362001efc565b91506200251382620024a8565b604082019050919050565b600060208201905081810360008301526200253981620024f7565b9050919050565b7f496e737469747574696f6e2063726561746564207375636365737366756c6c7960008201527f2e00000000000000000000000000000000000000000000000000000000000000602082015250565b60006200259e60218362001efc565b9150620025ab8262002540565b604082019050919050565b60006020820190508181036000830152620025d1816200258f565b9050919050565b7f4164647265737320616c72656164792065786973740000000000000000000000600082015250565b60006200261060158362001efc565b91506200261d82620025d8565b602082019050919050565b60006020820190508181036000830152620026438162002601565b9050919050565b7f496e737469747574696f6e20646f6573206e6f742065786973742e0000000000600082015250565b600062002682601b8362001efc565b91506200268f826200264a565b602082019050919050565b60006020820190508181036000830152620026b58162002673565b9050919050565b6000620026d3620026cd8462001c36565b62001c17565b905082815260208101848484011115620026f257620026f162001b9c565b5b620026ff84828562001f0d565b509392505050565b600082601f8301126200271f576200271e62001b97565b5b815162002731848260208601620026bc565b91505092915050565b6000815190506200274b816200197b565b92915050565b60008060008060008060c0878903121562002771576200277062001967565b5b600087015167ffffffffffffffff8111156200279257620027916200196c565b5b620027a089828a0162002707565b965050602087015167ffffffffffffffff811115620027c457620027c36200196c565b5b620027d289828a0162002707565b955050604087015167ffffffffffffffff811115620027f657620027f56200196c565b5b6200280489828a0162002707565b945050606087015167ffffffffffffffff8111156200282857620028276200196c565b5b6200283689828a0162002707565b935050608087015167ffffffffffffffff8111156200285a57620028596200196c565b5b6200286889828a0162002707565b92505060a06200287b89828a016200273a565b9150509295509295509295565b7f4f776e61626c653a206e6577206f776e657220697320746865207a65726f206160008201527f6464726573730000000000000000000000000000000000000000000000000000602082015250565b6000620028e660268362001efc565b9150620028f38262002888565b604082019050919050565b600060208201905081810360008301526200291981620028d7565b905091905056fe60806040523480156200001157600080fd5b506040516200160338038062001603833981810160405281019062000037919062000493565b620000576200004b6200013f60201b60201c565b6200014760201b60201c565b85600190805190602001906200006f9291906200020b565b508460029080519060200190620000889291906200020b565b508360039080519060200190620000a19291906200020b565b508260049080519060200190620000ba9291906200020b565b508160059080519060200190620000d39291906200020b565b50806006819055506001600860003373ffffffffffffffffffffffffffffffffffffffff1673ffffffffffffffffffffffffffffffffffffffff16815260200190815260200160002060006101000a81548160ff0219169083151502179055505050505050506200062f565b600033905090565b60008060009054906101000a900473ffffffffffffffffffffffffffffffffffffffff169050816000806101000a81548173ffffffffffffffffffffffffffffffffffffffff021916908373ffffffffffffffffffffffffffffffffffffffff1602179055508173ffffffffffffffffffffffffffffffffffffffff168173ffffffffffffffffffffffffffffffffffffffff167f8be0079c531659141344cd1fd0a4f28419497f9722a3daafe3b4186f6b6457e060405160405180910390a35050565b8280546200021990620005f9565b90600052602060002090601f0160209004810192826200023d576000855562000289565b82601f106200025857805160ff191683800117855562000289565b8280016001018555821562000289579182015b82811115620002885782518255916020019190600101906200026b565b5b5090506200029891906200029c565b5090565b5b80821115620002b75760008160009055506001016200029d565b5090565b6000604051905090565b600080fd5b600080fd5b600080fd5b600080fd5b6000601f19601f8301169050919050565b7f4e487b7100000000000000000000000000000000000000000000000000000000600052604160045260246000fd5b6200032482620002d9565b810181811067ffffffffffffffff82111715620003465762000345620002ea565b5b80604052505050565b60006200035b620002bb565b905062000369828262000319565b919050565b600067ffffffffffffffff8211156200038c576200038b620002ea565b5b6200039782620002d9565b9050602081019050919050565b60005b83811015620003c4578082015181840152602081019050620003a7565b83811115620003d4576000848401525b50505050565b6000620003f1620003eb846200036e565b6200034f565b90508281526020810184848401111562000410576200040f620002d4565b5b6200041d848285620003a4565b509392505050565b600082601f8301126200043d576200043c620002cf565b5b81516200044f848260208601620003da565b91505092915050565b6000819050919050565b6200046d8162000458565b81146200047957600080fd5b50565b6000815190506200048d8162000462565b92915050565b60008060008060008060c08789031215620004b357620004b2620002c5565b5b600087015167ffffffffffffffff811115620004d457620004d3620002ca565b5b620004e289828a0162000425565b965050602087015167ffffffffffffffff811115620005065762000505620002ca565b5b6200051489828a0162000425565b955050604087015167ffffffffffffffff811115620005385762000537620002ca565b5b6200054689828a0162000425565b945050606087015167ffffffffffffffff8111156200056a5762000569620002ca565b5b6200057889828a0162000425565b935050608087015167ffffffffffffffff8111156200059c576200059b620002ca565b5b620005aa89828a0162000425565b92505060a0620005bd89828a016200047c565b9150509295509295509295565b7f4e487b7100000000000000000000000000000000000000000000000000000000600052602260045260246000fd5b600060028204905060018216806200061257607f821691505b60208210811415620006295762000628620005ca565b5b50919050565b610fc4806200063f6000396000f3fe6080604052600436106100895760003560e01c80638be1789a116100595780638be1789a1461015b5780638da5cb5b14610198578063ab2f0e51146101c3578063d0e30db0146101ee578063f2fde38b146101f8576100a9565b8062f714ce146100ae5780635f3b1f3b146100eb57806370cd325114610114578063715018a614610144576100a9565b366100a95734600760008282546100a091906109e4565b92505081905550005b600080fd5b3480156100ba57600080fd5b506100d560048036038101906100d09190610ac9565b610221565b6040516100e29190610b24565b60405180910390f35b3480156100f757600080fd5b50610112600480360381019061010d9190610b3f565b610337565b005b34801561012057600080fd5b5061012961040e565b60405161013b96959493929190610c14565b60405180910390f35b34801561015057600080fd5b506101596106f5565b005b34801561016757600080fd5b50610182600480360381019061017d9190610b3f565b61077d565b60405161018f9190610b24565b60405180910390f35b3480156101a457600080fd5b506101ad61079d565b6040516101ba9190610ca7565b60405180910390f35b3480156101cf57600080fd5b506101d86107c6565b6040516101e59190610cc2565b60405180910390f35b6101f66107cc565b005b34801561020457600080fd5b5061021f600480360381019061021a9190610b3f565b6107e7565b005b6000826007541015610268576040517f08c379a000000000000000000000000000000000000000000000000000000000815260040161025f90610d29565b60405180910390fd5b826007600082825461027a9190610d49565b9250508190555060008273ffffffffffffffffffffffffffffffffffffffff16846040516102a790610dae565b60006040518083038185875af1925050503d80600081146102e4576040519150601f19603f3d011682016040523d82523d6000602084013e6102e9565b606091505b505090508061032d576040517f08c379a000000000000000000000000000000000000000000000000000000000815260040161032490610e0f565b60405180910390fd5b8091505092915050565b61033f6108df565b73ffffffffffffffffffffffffffffffffffffffff1661035d61079d565b73ffffffffffffffffffffffffffffffffffffffff16146103b3576040517f08c379a00000000000000000000000000000000000000000000000000000000081526004016103aa90610e7b565b60405180910390fd5b6001600860008373ffffffffffffffffffffffffffffffffffffffff1673ffffffffffffffffffffffffffffffffffffffff16815260200190815260200160002060006101000a81548160ff02191690831515021790555050565b606080606080606060006001600260036004600560065485805461043190610eca565b80601f016020809104026020016040519081016040528092919081815260200182805461045d90610eca565b80156104aa5780601f1061047f576101008083540402835291602001916104aa565b820191906000526020600020905b81548152906001019060200180831161048d57829003601f168201915b505050505095508480546104bd90610eca565b80601f01602080910402602001604051908101604052809291908181526020018280546104e990610eca565b80156105365780601f1061050b57610100808354040283529160200191610536565b820191906000526020600020905b81548152906001019060200180831161051957829003601f168201915b5050505050945083805461054990610eca565b80601f016020809104026020016040519081016040528092919081815260200182805461057590610eca565b80156105c25780601f10610597576101008083540402835291602001916105c2565b820191906000526020600020905b8154815290600101906020018083116105a557829003601f168201915b505050505093508280546105d590610eca565b80601f016020809104026020016040519081016040528092919081815260200182805461060190610eca565b801561064e5780601f106106235761010080835404028352916020019161064e565b820191906000526020600020905b81548152906001019060200180831161063157829003601f168201915b5050505050925081805461066190610eca565b80601f016020809104026020016040519081016040528092919081815260200182805461068d90610eca565b80156106da5780601f106106af576101008083540402835291602001916106da565b820191906000526020600020905b8154815290600101906020018083116106bd57829003601f168201915b50505050509150955095509550955095509550909192939495565b6106fd6108df565b73ffffffffffffffffffffffffffffffffffffffff1661071b61079d565b73ffffffffffffffffffffffffffffffffffffffff1614610771576040517f08c379a000000000000000000000000000000000000000000000000000000000815260040161076890610e7b565b60405180910390fd5b61077b60006108e7565b565b60086020528060005260406000206000915054906101000a900460ff1681565b60008060009054906101000a900473ffffffffffffffffffffffffffffffffffffffff16905090565b60075481565b34600760008282546107de91906109e4565b92505081905550565b6107ef6108df565b73ffffffffffffffffffffffffffffffffffffffff1661080d61079d565b73ffffffffffffffffffffffffffffffffffffffff1614610863576040517f08c379a000000000000000000000000000000000000000000000000000000000815260040161085a90610e7b565b60405180910390fd5b600073ffffffffffffffffffffffffffffffffffffffff168173ffffffffffffffffffffffffffffffffffffffff1614156108d3576040517f08c379a00000000000000000000000000000000000000000000000000000000081526004016108ca90610f6e565b60405180910390fd5b6108dc816108e7565b50565b600033905090565b60008060009054906101000a900473ffffffffffffffffffffffffffffffffffffffff169050816000806101000a81548173ffffffffffffffffffffffffffffffffffffffff021916908373ffffffffffffffffffffffffffffffffffffffff1602179055508173ffffffffffffffffffffffffffffffffffffffff168173ffffffffffffffffffffffffffffffffffffffff167f8be0079c531659141344cd1fd0a4f28419497f9722a3daafe3b4186f6b6457e060405160405180910390a35050565b6000819050919050565b7f4e487b7100000000000000000000000000000000000000000000000000000000600052601160045260246000fd5b60006109ef826109ab565b91506109fa836109ab565b9250827fffffffffffffffffffffffffffffffffffffffffffffffffffffffffffffffff03821115610a2f57610a2e6109b5565b5b828201905092915050565b600080fd5b610a48816109ab565b8114610a5357600080fd5b50565b600081359050610a6581610a3f565b92915050565b600073ffffffffffffffffffffffffffffffffffffffff82169050919050565b6000610a9682610a6b565b9050919050565b610aa681610a8b565b8114610ab157600080fd5b50565b600081359050610ac381610a9d565b92915050565b60008060408385031215610ae057610adf610a3a565b5b6000610aee85828601610a56565b9250506020610aff85828601610ab4565b9150509250929050565b60008115159050919050565b610b1e81610b09565b82525050565b6000602082019050610b396000830184610b15565b92915050565b600060208284031215610b5557610b54610a3a565b5b6000610b6384828501610ab4565b91505092915050565b600081519050919050565b600082825260208201905092915050565b60005b83811015610ba6578082015181840152602081019050610b8b565b83811115610bb5576000848401525b50505050565b6000601f19601f8301169050919050565b6000610bd782610b6c565b610be18185610b77565b9350610bf1818560208601610b88565b610bfa81610bbb565b840191505092915050565b610c0e816109ab565b82525050565b600060c0820190508181036000830152610c2e8189610bcc565b90508181036020830152610c428188610bcc565b90508181036040830152610c568187610bcc565b90508181036060830152610c6a8186610bcc565b90508181036080830152610c7e8185610bcc565b9050610c8d60a0830184610c05565b979650505050505050565b610ca181610a8b565b82525050565b6000602082019050610cbc6000830184610c98565b92915050565b6000602082019050610cd76000830184610c05565b92915050565b7f496e73756666696369656e742062616c616e63652e0000000000000000000000600082015250565b6000610d13601583610b77565b9150610d1e82610cdd565b602082019050919050565b60006020820190508181036000830152610d4281610d06565b9050919050565b6000610d54826109ab565b9150610d5f836109ab565b925082821015610d7257610d716109b5565b5b828203905092915050565b600081905092915050565b50565b6000610d98600083610d7d565b9150610da382610d88565b600082019050919050565b6000610db982610d8b565b9150819050919050565b7f5769746864726177616c206661696c6564000000000000000000000000000000600082015250565b6000610df9601183610b77565b9150610e0482610dc3565b602082019050919050565b60006020820190508181036000830152610e2881610dec565b9050919050565b7f4f776e61626c653a2063616c6c6572206973206e6f7420746865206f776e6572600082015250565b6000610e65602083610b77565b9150610e7082610e2f565b602082019050919050565b60006020820190508181036000830152610e9481610e58565b9050919050565b7f4e487b7100000000000000000000000000000000000000000000000000000000600052602260045260246000fd5b60006002820490506001821680610ee257607f821691505b60208210811415610ef657610ef5610e9b565b5b50919050565b7f4f776e61626c653a206e6577206f776e657220697320746865207a65726f206160008201527f6464726573730000000000000000000000000000000000000000000000000000602082015250565b6000610f58602683610b77565b9150610f6382610efc565b604082019050919050565b60006020820190508181036000830152610f8781610f4b565b905091905056fea26469706673582212202efe8da3745bf8da154220bc027f040d428ac57a17ada57942888a23bd9329b364736f6c634300080a0033a2646970667358221220b8d1f529b441e4a09726456756954aa2e2326e343c7dd8b51be250872dd0b9e064736f6c634300080a0033",
  "immutableReferences": {},
  "source": "// SPDX-License-Identifier: MIT\npragma solidity >=0.8.0;\n\nimport \"./Institution.sol\";\nimport \"@openzeppelin/contracts/access/Ownable.sol\";\n\ncontract InstitutionManager is Ownable{\n\n    uint public institutionIndex = 0;\n    \n    mapping (uint=>address payable) public institutions;\n\n    uint public remitanceAddressIndex;\n\n    mapping (address=>bool) public remittanceAddresses;\n\n    address[] public centralAccounts;\n\n    uint public treasuryUserIndex;\n\n    mapping (address=>mapping(uint=>bool)) public treasuryUsers;\n    \n    address public recordManager;\n\n    uint public totalRevenue;\n\n    //Events\n    event InsitutionRecordCreated(address indexed createdBy, \n    address indexed institutionAddress, \n    string message);\n    event WithdrawRequest(address sender, uint amount);\n\n    event GetInstitution(string name, string contactAddress, string phone, string email, uint registrationNumber);\n\n    //Set the default record manager for the institution factory\n    //Only owner can update the record manager;\n    function setInstitutionRecordManager(address _recordManager) public onlyOwner{\n        recordManager = _recordManager;\n    }\n\n    //Modifier to check that record manager is set.\n    modifier isRecordManagerSet(){\n        require(recordManager!=address(0));\n        _;\n    }\n\n\n    function createInstitution(string memory _name,\n        string memory _contactAddress,\n        string memory _additionalInformation,\n        string memory _phone,\n        string memory _email) public  onlyOwner returns(address){\n            institutionIndex ++;\n            //Create a new institutionContract;\n            Institution institution = new Institution(_name, _contactAddress, _additionalInformation, _phone, _email, institutionIndex);\n            institutions[institutionIndex] = payable(address(institution));\n           \n            emit InsitutionRecordCreated(msg.sender, address(institution),\"Institution created successfully.\");\n            return address(institution);\n        }\n    \n    \n    function getInstitution(uint registrationNumber) public view returns (string memory,\n            string memory,\n            string memory,\n            string memory,\n            string memory,\n            uint256){\n\n        require(institutions[registrationNumber]!=address(0), \"Institution does not exist.\");\n        \n        Institution institution = Institution(institutions[registrationNumber]);\n        \n        (   string memory _name,\n            string memory _contactAddress,\n            string memory _additionalInformation,\n            string memory _phone,\n            string memory _email,\n            uint256 _registrationNumber) = institution.getInstitutionDetails();\n        return (_name, _contactAddress, _additionalInformation, _phone, _email, _registrationNumber);\n    }\n\n    function getInstitutionById(uint registrationNumber) public view returns(address){\n        return institutions[registrationNumber];\n    }\n    \n\n    //Remittance addresses\n    function addRemittanceAddresses(address payable _remitanceAddress) public onlyOwner {\n        require(!remittanceAddresses[_remitanceAddress], \"Address already exist\");\n        remitanceAddressIndex++;\n        centralAccounts.push(_remitanceAddress);\n        remittanceAddresses[_remitanceAddress] = true;\n    }\n\n    //Disable Remittance addresses\n    function disbaleRemittanceAddresses(address payable _remitanceAddress) public onlyOwner {\n        require(remittanceAddresses[_remitanceAddress], \"Remittance address does not exist\");\n        remittanceAddresses[_remitanceAddress] = false;\n\n    }\n\n    //Can remit into destination addresses\n    function addTreasuryUsers(uint _institutionId, address _treasurerAddress) public onlyOwner {\n        require(institutions[_institutionId]!=address(0), \"Institution address not found!\");\n        treasuryUserIndex++;\n        treasuryUsers[_treasurerAddress][_institutionId] = true;\n        \n        address institutionAddress = institutions[_institutionId];\n        (bool success, ) = institutionAddress.call(abi.encodeWithSignature(\"addOwners(address)\", _treasurerAddress));\n        if(!success){\n            treasuryUserIndex--;\n        }\n    }\n\n    function disableTreasuryUsers(uint _institutionId, address _treasurerAddress) public onlyOwner{\n        require(institutions[_institutionId]!=address(0), \"Institution address not found!\");\n        require(treasuryUsers[_treasurerAddress][_institutionId], \"Treasury user does not exist\");\n        treasuryUsers[_treasurerAddress][_institutionId] = false;\n    }\n\n    function remitFunds(uint _institutionId, uint amount, address remittanceAddress) public returns(bool) {\n        \n        //Confirm address\n        require(remittanceAddresses[remittanceAddress], \"Remittance address not known!\");\n        // Confirm treasury user\n        require(treasuryUsers[msg.sender][_institutionId], \"Treasury user does not exist\");\n        address institutionAddress = institutions[_institutionId];\n\n        require(institutions[_institutionId]!=address(0), \"Institution does not exist\");\n        \n        //Initiate request\n        Institution institution = Institution(payable(institutionAddress));\n        // bool success = institution.withdraw(amount, remittanceAddress, msg.sender);\n        bool success = institution.withdraw(amount, remittanceAddress);\n        // (bool success, ) = institutionAddress.call(abi.encodeWithSignature(\"withdraw(uint, address)\", amount, remittanceAddress));\n        if(success){\n            totalRevenue= totalRevenue + amount;\n            emit WithdrawRequest(msg.sender, amount);\n        }\n        return success;\n\n    }\n\n   function deposit() external payable{}\n    receive() external payable{}\n}",
  "sourcePath": "/Users/adewaleadeleye/projects/solidity/final-project/contracts/InstitutionManager.sol",
  "compiler": {
    "name": "solc",
    "version": "0.8.10+commit.fc410830.Emscripten.clang"
  },
  "schemaVersion": "3.4.3",
  "updatedAt": "2021-12-17T00:00:23.767Z",
  "networkType": "ethereum",
  "devdoc": {
    "kind": "dev",
    "methods": {
      "owner()": {
        "details": "Returns the address of the current owner."
      },
      "renounceOwnership()": {
        "details": "Leaves the contract without owner. It will not be possible to call `onlyOwner` functions anymore. Can only be called by the current owner. NOTE: Renouncing ownership will leave the contract without an owner, thereby removing any functionality that is only available to the owner."
      },
      "transferOwnership(address)": {
        "details": "Transfers ownership of the contract to a new account (`newOwner`). Can only be called by the current owner."
      }
    },
    "version": 1
  },
  "userdoc": {
    "kind": "user",
    "methods": {},
    "version": 1
  }
}